{
  "_format": "hh-sol-artifact-1",
  "contractName": "logistic",
  "sourceName": "chain/contracts/logistic.sol",
  "abi": [
    {
      "inputs": [
        {
          "internalType": "address payable",
          "name": "_buyer",
          "type": "address"
        }
      ],
      "stateMutability": "nonpayable",
      "type": "constructor"
    },
    {
      "anonymous": false,
      "inputs": [],
      "name": "Closed",
      "type": "event"
    },
    {
      "anonymous": false,
      "inputs": [
        {
          "indexed": false,
          "internalType": "address",
          "name": "delegate",
          "type": "address"
        }
      ],
      "name": "Delegation",
      "type": "event"
    },
    {
      "anonymous": false,
      "inputs": [
        {
          "indexed": false,
          "internalType": "address",
          "name": "_buyer",
          "type": "address"
        },
        {
          "indexed": false,
          "internalType": "uint256",
          "name": "_total",
          "type": "uint256"
        }
      ],
      "name": "Paid",
      "type": "event"
    },
    {
      "anonymous": false,
      "inputs": [
        {
          "indexed": false,
          "internalType": "address",
          "name": "_buyer",
          "type": "address"
        },
        {
          "indexed": false,
          "internalType": "uint256",
          "name": "_total",
          "type": "uint256"
        }
      ],
      "name": "Refund",
      "type": "event"
    },
    {
      "anonymous": false,
      "inputs": [
        {
          "indexed": false,
          "internalType": "address",
          "name": "_transport",
          "type": "address"
        }
      ],
      "name": "Shipping",
      "type": "event"
    },
    {
      "inputs": [],
      "name": "buyer",
      "outputs": [
        {
          "internalType": "address payable",
          "name": "",
          "type": "address"
        }
      ],
      "stateMutability": "view",
      "type": "function"
    },
    {
      "inputs": [],
      "name": "calculateTotal",
      "outputs": [],
      "stateMutability": "nonpayable",
      "type": "function"
    },
    {
      "inputs": [
        {
          "internalType": "address",
          "name": "_delegate",
          "type": "address"
        }
      ],
      "name": "delegate",
      "outputs": [],
      "stateMutability": "nonpayable",
      "type": "function"
    },
    {
      "inputs": [],
      "name": "funds",
      "outputs": [
        {
          "internalType": "uint256",
          "name": "",
          "type": "uint256"
        }
      ],
      "stateMutability": "view",
      "type": "function"
    },
    {
      "inputs": [],
      "name": "gain",
      "outputs": [],
      "stateMutability": "nonpayable",
      "type": "function"
    },
    {
      "inputs": [
        {
          "internalType": "string",
          "name": "_id",
          "type": "string"
        },
        {
          "internalType": "string",
          "name": "_description",
          "type": "string"
        },
        {
          "internalType": "uint256",
          "name": "_price",
          "type": "uint256"
        },
        {
          "internalType": "uint256",
          "name": "_quantity",
          "type": "uint256"
        }
      ],
      "name": "insertProduct",
      "outputs": [],
      "stateMutability": "nonpayable",
      "type": "function"
    },
    {
      "inputs": [
        {
          "internalType": "uint256",
          "name": "_pay",
          "type": "uint256"
        }
      ],
      "name": "pay",
      "outputs": [],
      "stateMutability": "payable",
      "type": "function"
    },
    {
      "inputs": [],
      "name": "pendingReturns",
      "outputs": [
        {
          "internalType": "uint256",
          "name": "",
          "type": "uint256"
        }
      ],
      "stateMutability": "view",
      "type": "function"
    },
    {
      "inputs": [
        {
          "internalType": "uint256",
          "name": "",
          "type": "uint256"
        }
      ],
      "name": "product",
      "outputs": [
        {
          "internalType": "string",
          "name": "id",
          "type": "string"
        },
        {
          "internalType": "string",
          "name": "description",
          "type": "string"
        },
        {
          "internalType": "uint256",
          "name": "price",
          "type": "uint256"
        },
        {
          "internalType": "uint256",
          "name": "quantity",
          "type": "uint256"
        }
      ],
      "stateMutability": "view",
      "type": "function"
    },
    {
      "inputs": [],
      "name": "received",
      "outputs": [],
      "stateMutability": "nonpayable",
      "type": "function"
    },
    {
      "inputs": [],
      "name": "refund",
      "outputs": [],
      "stateMutability": "nonpayable",
      "type": "function"
    },
    {
      "inputs": [],
      "name": "seller",
      "outputs": [
        {
          "internalType": "address",
          "name": "",
          "type": "address"
        }
      ],
      "stateMutability": "view",
      "type": "function"
    },
    {
      "inputs": [],
      "name": "toPay",
      "outputs": [
        {
          "internalType": "uint256",
          "name": "",
          "type": "uint256"
        }
      ],
      "stateMutability": "view",
      "type": "function"
    },
    {
      "inputs": [],
      "name": "total",
      "outputs": [
        {
          "internalType": "uint256",
          "name": "",
          "type": "uint256"
        }
      ],
      "stateMutability": "view",
      "type": "function"
    },
    {
      "inputs": [],
      "name": "transport",
      "outputs": [
        {
          "internalType": "address",
          "name": "",
          "type": "address"
        }
      ],
      "stateMutability": "view",
      "type": "function"
    },
    {
      "inputs": [
        {
          "internalType": "address",
          "name": "_transport",
          "type": "address"
        }
      ],
      "name": "transportation",
      "outputs": [],
      "stateMutability": "nonpayable",
      "type": "function"
    },
    {
      "inputs": [],
      "name": "withdraw",
      "outputs": [],
      "stateMutability": "nonpayable",
      "type": "function"
    }
  ],
  "bytecode": "0x60806040523480156200001157600080fd5b506040516200202938038062002029833981810160405281019062000037919062000131565b336000806101000a81548173ffffffffffffffffffffffffffffffffffffffff021916908373ffffffffffffffffffffffffffffffffffffffff16021790555080600160006101000a81548173ffffffffffffffffffffffffffffffffffffffff021916908373ffffffffffffffffffffffffffffffffffffffff16021790555060006004819055505062000163565b600080fd5b600073ffffffffffffffffffffffffffffffffffffffff82169050919050565b6000620000f982620000cc565b9050919050565b6200010b81620000ec565b81146200011757600080fd5b50565b6000815190506200012b8162000100565b92915050565b6000602082840312156200014a5762000149620000c7565b5b60006200015a848285016200011a565b91505092915050565b611eb680620001736000396000f3fe6080604052600436106100fe5760003560e01c80635c19a95c116100955780639926223c116100645780639926223c146102da5780639954882c146102f1578063c290d6911461031c578063c89f2ce414610338578063e2f3d4b514610363576100fe565b80635c19a95c1461022f5780637150d8ae14610258578063780bd3f11461028357806383a6deb5146102c3576100fe565b80632f7bd389116100d15780632f7bd389146101af5780633ccfd60b146101d857806351105d33146101ef578063590e1ae314610218576100fe565b806304ac1db71461010357806308551a531461012e5780632cf87b13146101595780632ddbd13a14610184575b600080fd5b34801561010f57600080fd5b5061011861037a565b6040516101259190611320565b60405180910390f35b34801561013a57600080fd5b50610143610380565b604051610150919061137c565b60405180910390f35b34801561016557600080fd5b5061016e6103a4565b60405161017b919061137c565b60405180910390f35b34801561019057600080fd5b506101996103ca565b6040516101a69190611320565b60405180910390f35b3480156101bb57600080fd5b506101d660048036038101906101d1919061151d565b6103d0565b005b3480156101e457600080fd5b506101ed61053b565b005b3480156101fb57600080fd5b50610216600480360381019061021191906115e8565b610683565b005b34801561022457600080fd5b5061022d61084f565b005b34801561023b57600080fd5b50610256600480360381019061025191906115e8565b610a71565b005b34801561026457600080fd5b5061026d610b9e565b60405161027a9190611636565b60405180910390f35b34801561028f57600080fd5b506102aa60048036038101906102a59190611651565b610bc4565b6040516102ba9493929190611706565b60405180910390f35b3480156102cf57600080fd5b506102d8610d14565b005b3480156102e657600080fd5b506102ef610dd1565b005b3480156102fd57600080fd5b50610306611037565b6040516103139190611320565b60405180910390f35b61033660048036038101906103319190611651565b61103d565b005b34801561034457600080fd5b5061034d6111c1565b60405161035a9190611320565b60405180910390f35b34801561036f57600080fd5b506103786111c7565b005b60075481565b60008054906101000a900473ffffffffffffffffffffffffffffffffffffffff1681565b600260009054906101000a900473ffffffffffffffffffffffffffffffffffffffff1681565b60045481565b600160009054906101000a900473ffffffffffffffffffffffffffffffffffffffff1673ffffffffffffffffffffffffffffffffffffffff163373ffffffffffffffffffffffffffffffffffffffff1614610460576040517f08c379a0000000000000000000000000000000000000000000000000000000008152600401610457906117cb565b60405180910390fd5b60006040518060800160405280868152602001858152602001848152602001838152509050600381908060018154018082558091505060019003906000526020600020906004020160009091909190915060008201518160000190805190602001906104cd929190611264565b5060208201518160010190805190602001906104ea929190611264565b50604082015181600201556060820151816003015550506000600860006101000a81548160ff02191690836005811115610527576105266117eb565b5b02179055506105346111c7565b5050505050565b600160009054906101000a900473ffffffffffffffffffffffffffffffffffffffff1673ffffffffffffffffffffffffffffffffffffffff163373ffffffffffffffffffffffffffffffffffffffff16146105cb576040517f08c379a00000000000000000000000000000000000000000000000000000000081526004016105c2906117cb565b60405180910390fd5b600060075411610610576040517f08c379a000000000000000000000000000000000000000000000000000000000815260040161060790611866565b60405180910390fd5b6000600781905550600160009054906101000a900473ffffffffffffffffffffffffffffffffffffffff1673ffffffffffffffffffffffffffffffffffffffff166108fc479081150290604051600060405180830381858888f19350505050158015610680573d6000803e3d6000fd5b50565b60008054906101000a900473ffffffffffffffffffffffffffffffffffffffff1673ffffffffffffffffffffffffffffffffffffffff163373ffffffffffffffffffffffffffffffffffffffff1614610711576040517f08c379a0000000000000000000000000000000000000000000000000000000008152600401610708906118f8565b60405180910390fd5b60016005811115610725576107246117eb565b5b600860009054906101000a900460ff166005811115610747576107466117eb565b5b14610787576040517f08c379a000000000000000000000000000000000000000000000000000000000815260040161077e90611964565b60405180910390fd5b80600260006101000a81548173ffffffffffffffffffffffffffffffffffffffff021916908373ffffffffffffffffffffffffffffffffffffffff1602179055506002600860006101000a81548160ff021916908360058111156107ee576107ed6117eb565b5b02179055507fdf851494a6d15e3b141d643dde6ca665a481fda5d61c0953f6ba81c61048aaa1600260009054906101000a900473ffffffffffffffffffffffffffffffffffffffff16604051610844919061137c565b60405180910390a150565b60036005811115610863576108626117eb565b5b600860009054906101000a900460ff166005811115610885576108846117eb565b5b14156108c6576040517f08c379a00000000000000000000000000000000000000000000000000000000081526004016108bd906119d0565b60405180910390fd5b6005808111156108d9576108d86117eb565b5b600860009054906101000a900460ff1660058111156108fb576108fa6117eb565b5b141561093c576040517f08c379a000000000000000000000000000000000000000000000000000000000815260040161093390611a3c565b60405180910390fd5b600060065411610981576040517f08c379a000000000000000000000000000000000000000000000000000000000815260040161097890611aa8565b60405180910390fd5b60008054906101000a900473ffffffffffffffffffffffffffffffffffffffff1673ffffffffffffffffffffffffffffffffffffffff163373ffffffffffffffffffffffffffffffffffffffff161415610a6f5760065460078190555060006006819055507fbb28353e4598c3b9199101a66e0989549b659a59a54d2c27fbb183f1932c8e6d600160009054906101000a900473ffffffffffffffffffffffffffffffffffffffff16600754604051610a3b929190611b27565b60405180910390a16003600860006101000a81548160ff02191690836005811115610a6957610a686117eb565b5b02179055505b565b600260009054906101000a900473ffffffffffffffffffffffffffffffffffffffff1673ffffffffffffffffffffffffffffffffffffffff163373ffffffffffffffffffffffffffffffffffffffff1614610b01576040517f08c379a0000000000000000000000000000000000000000000000000000000008152600401610af890611b9c565b60405180910390fd5b80600260006101000a81548173ffffffffffffffffffffffffffffffffffffffff021916908373ffffffffffffffffffffffffffffffffffffffff1602179055507f600005b3559a025151f4a40f36d9939d94cf5194016895d4ef6362b211e4c3b5600260009054906101000a900473ffffffffffffffffffffffffffffffffffffffff16604051610b93919061137c565b60405180910390a150565b600160009054906101000a900473ffffffffffffffffffffffffffffffffffffffff1681565b60038181548110610bd457600080fd5b9060005260206000209060040201600091509050806000018054610bf790611beb565b80601f0160208091040260200160405190810160405280929190818152602001828054610c2390611beb565b8015610c705780601f10610c4557610100808354040283529160200191610c70565b820191906000526020600020905b815481529060010190602001808311610c5357829003601f168201915b505050505090806001018054610c8590611beb565b80601f0160208091040260200160405190810160405280929190818152602001828054610cb190611beb565b8015610cfe5780601f10610cd357610100808354040283529160200191610cfe565b820191906000526020600020905b815481529060010190602001808311610ce157829003601f168201915b5050505050908060020154908060030154905084565b600260009054906101000a900473ffffffffffffffffffffffffffffffffffffffff1673ffffffffffffffffffffffffffffffffffffffff163373ffffffffffffffffffffffffffffffffffffffff1614610da4576040517f08c379a0000000000000000000000000000000000000000000000000000000008152600401610d9b90611b9c565b60405180910390fd5b6004600860006101000a81548160ff02191690836005811115610dca57610dc96117eb565b5b0217905550565b60008054906101000a900473ffffffffffffffffffffffffffffffffffffffff1673ffffffffffffffffffffffffffffffffffffffff163373ffffffffffffffffffffffffffffffffffffffff1614610e5f576040517f08c379a0000000000000000000000000000000000000000000000000000000008152600401610e56906118f8565b60405180910390fd5b60036005811115610e7357610e726117eb565b5b600860009054906101000a900460ff166005811115610e9557610e946117eb565b5b1415610ed6576040517f08c379a0000000000000000000000000000000000000000000000000000000008152600401610ecd906119d0565b60405180910390fd5b600580811115610ee957610ee86117eb565b5b600860009054906101000a900460ff166005811115610f0b57610f0a6117eb565b5b1415610f4c576040517f08c379a0000000000000000000000000000000000000000000000000000000008152600401610f4390611a3c565b60405180910390fd5b60046005811115610f6057610f5f6117eb565b5b600860009054906101000a900460ff166005811115610f8257610f816117eb565b5b14610f8c57600080fd5b6005600860006101000a81548160ff02191690836005811115610fb257610fb16117eb565b5b0217905550600060065411610fc657600080fd5b600060068190555060008054906101000a900473ffffffffffffffffffffffffffffffffffffffff1673ffffffffffffffffffffffffffffffffffffffff166108fc479081150290604051600060405180830381858888f19350505050158015611034573d6000803e3d6000fd5b50565b60055481565b600060045411611082576040517f08c379a000000000000000000000000000000000000000000000000000000000815260040161107990611c69565b60405180910390fd5b60006005811115611096576110956117eb565b5b600860009054906101000a900460ff1660058111156110b8576110b76117eb565b5b146110f8576040517f08c379a00000000000000000000000000000000000000000000000000000000081526004016110ef90611cd5565b60405180910390fd5b806006600082825461110a9190611d24565b9250508190555080600560008282546111239190611d7a565b92505081905550600060055414156111be576001600860006101000a81548160ff0219169083600581111561115b5761115a6117eb565b5b02179055507f737c69225d647e5994eab1a6c301bf6d9232beb2759ae1e27a8966b4732bc489600160009054906101000a900473ffffffffffffffffffffffffffffffffffffffff166006546040516111b5929190611b27565b60405180910390a15b50565b60065481565b60005b60038054905081101561125857600381815481106111eb576111ea611dae565b5b9060005260206000209060040201600301546003828154811061121157611210611dae565b5b90600052602060002090600402016002015461122d9190611ddd565b6004600082825461123e9190611d24565b92505081905550808061125090611e37565b9150506111ca565b50600454600581905550565b82805461127090611beb565b90600052602060002090601f01602090048101928261129257600085556112d9565b82601f106112ab57805160ff19168380011785556112d9565b828001600101855582156112d9579182015b828111156112d85782518255916020019190600101906112bd565b5b5090506112e691906112ea565b5090565b5b808211156113035760008160009055506001016112eb565b5090565b6000819050919050565b61131a81611307565b82525050565b60006020820190506113356000830184611311565b92915050565b600073ffffffffffffffffffffffffffffffffffffffff82169050919050565b60006113668261133b565b9050919050565b6113768161135b565b82525050565b6000602082019050611391600083018461136d565b92915050565b6000604051905090565b600080fd5b600080fd5b600080fd5b600080fd5b6000601f19601f8301169050919050565b7f4e487b7100000000000000000000000000000000000000000000000000000000600052604160045260246000fd5b6113fe826113b5565b810181811067ffffffffffffffff8211171561141d5761141c6113c6565b5b80604052505050565b6000611430611397565b905061143c82826113f5565b919050565b600067ffffffffffffffff82111561145c5761145b6113c6565b5b611465826113b5565b9050602081019050919050565b82818337600083830152505050565b600061149461148f84611441565b611426565b9050828152602081018484840111156114b0576114af6113b0565b5b6114bb848285611472565b509392505050565b600082601f8301126114d8576114d76113ab565b5b81356114e8848260208601611481565b91505092915050565b6114fa81611307565b811461150557600080fd5b50565b600081359050611517816114f1565b92915050565b60008060008060808587031215611537576115366113a1565b5b600085013567ffffffffffffffff811115611555576115546113a6565b5b611561878288016114c3565b945050602085013567ffffffffffffffff811115611582576115816113a6565b5b61158e878288016114c3565b935050604061159f87828801611508565b92505060606115b087828801611508565b91505092959194509250565b6115c58161135b565b81146115d057600080fd5b50565b6000813590506115e2816115bc565b92915050565b6000602082840312156115fe576115fd6113a1565b5b600061160c848285016115d3565b91505092915050565b60006116208261133b565b9050919050565b61163081611615565b82525050565b600060208201905061164b6000830184611627565b92915050565b600060208284031215611667576116666113a1565b5b600061167584828501611508565b91505092915050565b600081519050919050565b600082825260208201905092915050565b60005b838110156116b857808201518184015260208101905061169d565b838111156116c7576000848401525b50505050565b60006116d88261167e565b6116e28185611689565b93506116f281856020860161169a565b6116fb816113b5565b840191505092915050565b6000608082019050818103600083015261172081876116cd565b9050818103602083015261173481866116cd565b90506117436040830185611311565b6117506060830184611311565b95945050505050565b7f4f6e6c7920637573746f6d65722063616e2075736520746869732066756e637460008201527f696f6e2e00000000000000000000000000000000000000000000000000000000602082015250565b60006117b5602483611689565b91506117c082611759565b604082019050919050565b600060208201905081810360008301526117e4816117a8565b9050919050565b7f4e487b7100000000000000000000000000000000000000000000000000000000600052602160045260246000fd5b7f43616e6e6f742077697468647261770000000000000000000000000000000000600082015250565b6000611850600f83611689565b915061185b8261181a565b602082019050919050565b6000602082019050818103600083015261187f81611843565b9050919050565b7f4f6e6c79206465616c65722063616e2075736520746869732066756e6374696f60008201527f6e2e000000000000000000000000000000000000000000000000000000000000602082015250565b60006118e2602283611689565b91506118ed82611886565b604082019050919050565b60006020820190508181036000830152611911816118d5565b9050919050565b7f4e6f742070616964210000000000000000000000000000000000000000000000600082015250565b600061194e600983611689565b915061195982611918565b602082019050919050565b6000602082019050818103600083015261197d81611941565b9050919050565b7f436865636b696e6720726566756e642100000000000000000000000000000000600082015250565b60006119ba601083611689565b91506119c582611984565b602082019050919050565b600060208201905081810360008301526119e9816119ad565b9050919050565b7f4e6f742063616c6c61626c652100000000000000000000000000000000000000600082015250565b6000611a26600d83611689565b9150611a31826119f0565b602082019050919050565b60006020820190508181036000830152611a5581611a19565b9050919050565b7f4e6f742063616c6c61626c650000000000000000000000000000000000000000600082015250565b6000611a92600c83611689565b9150611a9d82611a5c565b602082019050919050565b60006020820190508181036000830152611ac181611a85565b9050919050565b6000819050919050565b6000611aed611ae8611ae38461133b565b611ac8565b61133b565b9050919050565b6000611aff82611ad2565b9050919050565b6000611b1182611af4565b9050919050565b611b2181611b06565b82525050565b6000604082019050611b3c6000830185611b18565b611b496020830184611311565b9392505050565b7f4f6e6c7920766563746f722063616e2064656c65676174652e00000000000000600082015250565b6000611b86601983611689565b9150611b9182611b50565b602082019050919050565b60006020820190508181036000830152611bb581611b79565b9050919050565b7f4e487b7100000000000000000000000000000000000000000000000000000000600052602260045260246000fd5b60006002820490506001821680611c0357607f821691505b60208210811415611c1757611c16611bbc565b5b50919050565b7f43616c63756c61746520746f74616c206265666f726521000000000000000000600082015250565b6000611c53601783611689565b9150611c5e82611c1d565b602082019050919050565b60006020820190508181036000830152611c8281611c46565b9050919050565b7f416c726561647920706169642100000000000000000000000000000000000000600082015250565b6000611cbf600d83611689565b9150611cca82611c89565b602082019050919050565b60006020820190508181036000830152611cee81611cb2565b9050919050565b7f4e487b7100000000000000000000000000000000000000000000000000000000600052601160045260246000fd5b6000611d2f82611307565b9150611d3a83611307565b9250827fffffffffffffffffffffffffffffffffffffffffffffffffffffffffffffffff03821115611d6f57611d6e611cf5565b5b828201905092915050565b6000611d8582611307565b9150611d9083611307565b925082821015611da357611da2611cf5565b5b828203905092915050565b7f4e487b7100000000000000000000000000000000000000000000000000000000600052603260045260246000fd5b6000611de882611307565b9150611df383611307565b9250817fffffffffffffffffffffffffffffffffffffffffffffffffffffffffffffffff0483118215151615611e2c57611e2b611cf5565b5b828202905092915050565b6000611e4282611307565b91507fffffffffffffffffffffffffffffffffffffffffffffffffffffffffffffffff821415611e7557611e74611cf5565b5b60018201905091905056fea264697066735822122078e5a0653afe328b778799d43fa7baa25c81d340ecb0ba82f622b9d0cc91234764736f6c63430008090033",
  "linkReferences": {},
  "deployedLinkReferences": {}
}