{
  "_format": "hh-sol-artifact-1",
  "contractName": "logistic",
  "sourceName": "chain/contracts/logistic.sol",
  "abi": [
    {
      "inputs": [
        {
          "internalType": "address payable",
          "name": "_buyer",
          "type": "address"
        }
      ],
      "stateMutability": "nonpayable",
      "type": "constructor"
    },
    {
      "anonymous": false,
      "inputs": [
        {
          "indexed": true,
          "internalType": "enum logistic.stateOfShipping",
          "name": "",
          "type": "uint8"
        }
      ],
      "name": "changeState",
      "type": "event"
    },
    {
      "anonymous": false,
      "inputs": [
        {
          "indexed": true,
          "internalType": "address",
          "name": "",
          "type": "address"
        }
      ],
      "name": "handover",
      "type": "event"
    },
    {
      "anonymous": false,
      "inputs": [
        {
          "components": [
            {
              "internalType": "string",
              "name": "id",
              "type": "string"
            },
            {
              "internalType": "string",
              "name": "description",
              "type": "string"
            },
            {
              "internalType": "uint256",
              "name": "price",
              "type": "uint256"
            },
            {
              "internalType": "uint256",
              "name": "quantity",
              "type": "uint256"
            }
          ],
          "indexed": true,
          "internalType": "struct logistic.Product",
          "name": "",
          "type": "tuple"
        }
      ],
      "name": "productAdd",
      "type": "event"
    },
    {
      "inputs": [],
      "name": "buyer",
      "outputs": [
        {
          "internalType": "address payable",
          "name": "",
          "type": "address"
        }
      ],
      "stateMutability": "view",
      "type": "function"
    },
    {
      "inputs": [
        {
          "internalType": "address",
          "name": "_delegate",
          "type": "address"
        }
      ],
      "name": "delegate",
      "outputs": [],
      "stateMutability": "nonpayable",
      "type": "function"
    },
    {
      "inputs": [],
      "name": "funds",
      "outputs": [
        {
          "internalType": "uint256",
          "name": "",
          "type": "uint256"
        }
      ],
      "stateMutability": "view",
      "type": "function"
    },
    {
      "inputs": [],
      "name": "gain",
      "outputs": [],
      "stateMutability": "nonpayable",
      "type": "function"
    },
    {
      "inputs": [],
      "name": "getBuyer",
      "outputs": [
        {
          "internalType": "address",
          "name": "",
          "type": "address"
        }
      ],
      "stateMutability": "view",
      "type": "function"
    },
    {
      "inputs": [],
      "name": "getProducts",
      "outputs": [
        {
          "components": [
            {
              "internalType": "string",
              "name": "id",
              "type": "string"
            },
            {
              "internalType": "string",
              "name": "description",
              "type": "string"
            },
            {
              "internalType": "uint256",
              "name": "price",
              "type": "uint256"
            },
            {
              "internalType": "uint256",
              "name": "quantity",
              "type": "uint256"
            }
          ],
          "internalType": "struct logistic.Product[]",
          "name": "",
          "type": "tuple[]"
        }
      ],
      "stateMutability": "view",
      "type": "function"
    },
    {
      "inputs": [],
      "name": "getSeller",
      "outputs": [
        {
          "internalType": "address",
          "name": "",
          "type": "address"
        }
      ],
      "stateMutability": "view",
      "type": "function"
    },
    {
      "inputs": [],
      "name": "getState",
      "outputs": [
        {
          "internalType": "enum logistic.stateOfShipping",
          "name": "",
          "type": "uint8"
        }
      ],
      "stateMutability": "view",
      "type": "function"
    },
    {
      "inputs": [],
      "name": "getTotal",
      "outputs": [
        {
          "internalType": "uint256",
          "name": "",
          "type": "uint256"
        }
      ],
      "stateMutability": "view",
      "type": "function"
    },
    {
      "inputs": [],
      "name": "getTransport",
      "outputs": [
        {
          "internalType": "address",
          "name": "",
          "type": "address"
        }
      ],
      "stateMutability": "view",
      "type": "function"
    },
    {
      "inputs": [
        {
          "internalType": "string",
          "name": "_id",
          "type": "string"
        },
        {
          "internalType": "string",
          "name": "_description",
          "type": "string"
        },
        {
          "internalType": "uint256",
          "name": "_price",
          "type": "uint256"
        },
        {
          "internalType": "uint256",
          "name": "_quantity",
          "type": "uint256"
        }
      ],
      "name": "insertProduct",
      "outputs": [],
      "stateMutability": "nonpayable",
      "type": "function"
    },
    {
      "inputs": [
        {
          "internalType": "uint256",
          "name": "_pay",
          "type": "uint256"
        }
      ],
      "name": "pay",
      "outputs": [],
      "stateMutability": "payable",
      "type": "function"
    },
    {
      "inputs": [],
      "name": "pendingReturns",
      "outputs": [
        {
          "internalType": "uint256",
          "name": "",
          "type": "uint256"
        }
      ],
      "stateMutability": "view",
      "type": "function"
    },
    {
      "inputs": [
        {
          "internalType": "uint256",
          "name": "",
          "type": "uint256"
        }
      ],
      "name": "product",
      "outputs": [
        {
          "internalType": "string",
          "name": "id",
          "type": "string"
        },
        {
          "internalType": "string",
          "name": "description",
          "type": "string"
        },
        {
          "internalType": "uint256",
          "name": "price",
          "type": "uint256"
        },
        {
          "internalType": "uint256",
          "name": "quantity",
          "type": "uint256"
        }
      ],
      "stateMutability": "view",
      "type": "function"
    },
    {
      "inputs": [],
      "name": "received",
      "outputs": [],
      "stateMutability": "nonpayable",
      "type": "function"
    },
    {
      "inputs": [],
      "name": "refund",
      "outputs": [],
      "stateMutability": "nonpayable",
      "type": "function"
    },
    {
      "inputs": [],
      "name": "seller",
      "outputs": [
        {
          "internalType": "address",
          "name": "",
          "type": "address"
        }
      ],
      "stateMutability": "view",
      "type": "function"
    },
    {
      "inputs": [],
      "name": "state",
      "outputs": [
        {
          "internalType": "enum logistic.stateOfShipping",
          "name": "",
          "type": "uint8"
        }
      ],
      "stateMutability": "view",
      "type": "function"
    },
    {
      "inputs": [],
      "name": "toPay",
      "outputs": [
        {
          "internalType": "uint256",
          "name": "",
          "type": "uint256"
        }
      ],
      "stateMutability": "view",
      "type": "function"
    },
    {
      "inputs": [],
      "name": "total",
      "outputs": [
        {
          "internalType": "uint256",
          "name": "",
          "type": "uint256"
        }
      ],
      "stateMutability": "view",
      "type": "function"
    },
    {
      "inputs": [],
      "name": "transport",
      "outputs": [
        {
          "internalType": "address",
          "name": "",
          "type": "address"
        }
      ],
      "stateMutability": "view",
      "type": "function"
    },
    {
      "inputs": [
        {
          "internalType": "address",
          "name": "_transport",
          "type": "address"
        }
      ],
      "name": "transportation",
      "outputs": [],
      "stateMutability": "nonpayable",
      "type": "function"
    },
    {
      "inputs": [],
      "name": "withdraw",
      "outputs": [],
      "stateMutability": "nonpayable",
      "type": "function"
    }
  ],
  "bytecode": "0x60806040523480156200001157600080fd5b506040516200273538038062002735833981810160405281019062000037919062000129565b336000806101000a81548173ffffffffffffffffffffffffffffffffffffffff021916908373ffffffffffffffffffffffffffffffffffffffff16021790555080600160006101000a81548173ffffffffffffffffffffffffffffffffffffffff021916908373ffffffffffffffffffffffffffffffffffffffff160217905550506200015b565b600080fd5b600073ffffffffffffffffffffffffffffffffffffffff82169050919050565b6000620000f182620000c4565b9050919050565b6200010381620000e4565b81146200010f57600080fd5b50565b6000815190506200012381620000f8565b92915050565b600060208284031215620001425762000141620000bf565b5b6000620001528482850162000112565b91505092915050565b6125ca806200016b6000396000f3fe6080604052600436106101405760003560e01c8063603daf9a116100b65780639954882c1161006f5780639954882c146103df578063c19d93fb1461040a578063c290d69114610435578063c29b2f2014610451578063c89f2ce41461047c578063dbd0e1b6146104a757610140565b8063603daf9a146102f05780637150d8ae1461031b578063775a25e314610346578063780bd3f11461037157806383a6deb5146103b15780639926223c146103c857610140565b80632f7bd389116101085780632f7bd3891461021c5780633420924a146102455780633ccfd60b1461027057806351105d3314610287578063590e1ae3146102b05780635c19a95c146102c757610140565b806304ac1db71461014557806308551a53146101705780631865c57d1461019b5780632cf87b13146101c65780632ddbd13a146101f1575b600080fd5b34801561015157600080fd5b5061015a6104d2565b60405161016791906117c5565b60405180910390f35b34801561017c57600080fd5b506101856104d8565b6040516101929190611821565b60405180910390f35b3480156101a757600080fd5b506101b06104fc565b6040516101bd91906118b3565b60405180910390f35b3480156101d257600080fd5b506101db610513565b6040516101e89190611821565b60405180910390f35b3480156101fd57600080fd5b50610206610539565b60405161021391906117c5565b60405180910390f35b34801561022857600080fd5b50610243600480360381019061023e9190611a54565b61053f565b005b34801561025157600080fd5b5061025a6106c1565b6040516102679190611821565b60405180910390f35b34801561027c57600080fd5b506102856106eb565b005b34801561029357600080fd5b506102ae60048036038101906102a99190611b1f565b610833565b005b3480156102bc57600080fd5b506102c5610a37565b005b3480156102d357600080fd5b506102ee60048036038101906102e99190611b1f565b610c4a565b005b3480156102fc57600080fd5b50610305610daf565b6040516103129190611821565b60405180910390f35b34801561032757600080fd5b50610330610dd9565b60405161033d9190611b6d565b60405180910390f35b34801561035257600080fd5b5061035b610dff565b60405161036891906117c5565b60405180910390f35b34801561037d57600080fd5b5061039860048036038101906103939190611b88565b610e09565b6040516103a89493929190611c3d565b60405180910390f35b3480156103bd57600080fd5b506103c6610f59565b005b3480156103d457600080fd5b506103dd611064565b005b3480156103eb57600080fd5b506103f4611318565b60405161040191906117c5565b60405180910390f35b34801561041657600080fd5b5061041f61131e565b60405161042c91906118b3565b60405180910390f35b61044f600480360381019061044a9190611b88565b611331565b005b34801561045d57600080fd5b506104666114a6565b6040516104739190611e15565b60405180910390f35b34801561048857600080fd5b5061049161163d565b60405161049e91906117c5565b60405180910390f35b3480156104b357600080fd5b506104bc611643565b6040516104c99190611821565b60405180910390f35b60075481565b60008054906101000a900473ffffffffffffffffffffffffffffffffffffffff1681565b6000600860009054906101000a900460ff16905090565b600260009054906101000a900473ffffffffffffffffffffffffffffffffffffffff1681565b60045481565b600160009054906101000a900473ffffffffffffffffffffffffffffffffffffffff1673ffffffffffffffffffffffffffffffffffffffff163373ffffffffffffffffffffffffffffffffffffffff16146105cf576040517f08c379a00000000000000000000000000000000000000000000000000000000081526004016105c690611ea9565b60405180910390fd5b600060405180608001604052808681526020018581526020018481526020018381525090506003819080600181540180825580915050600190039060005260206000209060040201600090919091909150600082015181600001908051906020019061063c929190611709565b506020820151816001019080519060200190610659929190611709565b50604082015181600201556060820151816003015550508060405161067e9190611f9f565b60405180910390207f53205550e89634ecef8d267ad2bca651ec10907539c31b4ebd324d33e0f2441560405160405180910390a26106ba61166c565b5050505050565b6000600260009054906101000a900473ffffffffffffffffffffffffffffffffffffffff16905090565b600160009054906101000a900473ffffffffffffffffffffffffffffffffffffffff1673ffffffffffffffffffffffffffffffffffffffff163373ffffffffffffffffffffffffffffffffffffffff161461077b576040517f08c379a000000000000000000000000000000000000000000000000000000000815260040161077290611ea9565b60405180910390fd5b6000600754116107c0576040517f08c379a00000000000000000000000000000000000000000000000000000000081526004016107b790612002565b60405180910390fd5b6000600781905550600160009054906101000a900473ffffffffffffffffffffffffffffffffffffffff1673ffffffffffffffffffffffffffffffffffffffff166108fc479081150290604051600060405180830381858888f19350505050158015610830573d6000803e3d6000fd5b50565b60008054906101000a900473ffffffffffffffffffffffffffffffffffffffff1673ffffffffffffffffffffffffffffffffffffffff163373ffffffffffffffffffffffffffffffffffffffff16146108c1576040517f08c379a00000000000000000000000000000000000000000000000000000000081526004016108b890612094565b60405180910390fd5b600160058111156108d5576108d461183c565b5b600860009054906101000a900460ff1660058111156108f7576108f661183c565b5b14610937576040517f08c379a000000000000000000000000000000000000000000000000000000000815260040161092e90612100565b60405180910390fd5b80600260006101000a81548173ffffffffffffffffffffffffffffffffffffffff021916908373ffffffffffffffffffffffffffffffffffffffff1602179055506002600860006101000a81548160ff0219169083600581111561099e5761099d61183c565b5b0217905550600860009054906101000a900460ff1660058111156109c5576109c461183c565b5b7f268f1153844c3ed9f77b7cabc4fedb9d9994a5361b583f824ffbe523f3739e6560405160405180910390a28073ffffffffffffffffffffffffffffffffffffffff167f3ff4d08335c24b48079a25a3a3cb09d8c913631430f829ec6e529c70ca63008860405160405180910390a250565b60036005811115610a4b57610a4a61183c565b5b600860009054906101000a900460ff166005811115610a6d57610a6c61183c565b5b1415610aae576040517f08c379a0000000000000000000000000000000000000000000000000000000008152600401610aa59061216c565b60405180910390fd5b600580811115610ac157610ac061183c565b5b600860009054906101000a900460ff166005811115610ae357610ae261183c565b5b1415610b24576040517f08c379a0000000000000000000000000000000000000000000000000000000008152600401610b1b906121d8565b60405180910390fd5b600060065411610b69576040517f08c379a0000000000000000000000000000000000000000000000000000000008152600401610b6090612244565b60405180910390fd5b60008054906101000a900473ffffffffffffffffffffffffffffffffffffffff1673ffffffffffffffffffffffffffffffffffffffff163373ffffffffffffffffffffffffffffffffffffffff161415610bcf5760065460078190555060006006819055505b6003600860006101000a81548160ff02191690836005811115610bf557610bf461183c565b5b0217905550600860009054906101000a900460ff166005811115610c1c57610c1b61183c565b5b7f268f1153844c3ed9f77b7cabc4fedb9d9994a5361b583f824ffbe523f3739e6560405160405180910390a2565b600260009054906101000a900473ffffffffffffffffffffffffffffffffffffffff1673ffffffffffffffffffffffffffffffffffffffff163373ffffffffffffffffffffffffffffffffffffffff1614610cda576040517f08c379a0000000000000000000000000000000000000000000000000000000008152600401610cd1906122b0565b60405180910390fd5b80600260006101000a81548173ffffffffffffffffffffffffffffffffffffffff021916908373ffffffffffffffffffffffffffffffffffffffff160217905550600860009054906101000a900460ff166005811115610d3d57610d3c61183c565b5b7f268f1153844c3ed9f77b7cabc4fedb9d9994a5361b583f824ffbe523f3739e6560405160405180910390a28073ffffffffffffffffffffffffffffffffffffffff167f3ff4d08335c24b48079a25a3a3cb09d8c913631430f829ec6e529c70ca63008860405160405180910390a250565b6000600160009054906101000a900473ffffffffffffffffffffffffffffffffffffffff16905090565b600160009054906101000a900473ffffffffffffffffffffffffffffffffffffffff1681565b6000600454905090565b60038181548110610e1957600080fd5b9060005260206000209060040201600091509050806000018054610e3c906122ff565b80601f0160208091040260200160405190810160405280929190818152602001828054610e68906122ff565b8015610eb55780601f10610e8a57610100808354040283529160200191610eb5565b820191906000526020600020905b815481529060010190602001808311610e9857829003601f168201915b505050505090806001018054610eca906122ff565b80601f0160208091040260200160405190810160405280929190818152602001828054610ef6906122ff565b8015610f435780601f10610f1857610100808354040283529160200191610f43565b820191906000526020600020905b815481529060010190602001808311610f2657829003601f168201915b5050505050908060020154908060030154905084565b600260009054906101000a900473ffffffffffffffffffffffffffffffffffffffff1673ffffffffffffffffffffffffffffffffffffffff163373ffffffffffffffffffffffffffffffffffffffff1614610fe9576040517f08c379a0000000000000000000000000000000000000000000000000000000008152600401610fe0906122b0565b60405180910390fd5b6004600860006101000a81548160ff0219169083600581111561100f5761100e61183c565b5b0217905550600860009054906101000a900460ff1660058111156110365761103561183c565b5b7f268f1153844c3ed9f77b7cabc4fedb9d9994a5361b583f824ffbe523f3739e6560405160405180910390a2565b60008054906101000a900473ffffffffffffffffffffffffffffffffffffffff1673ffffffffffffffffffffffffffffffffffffffff163373ffffffffffffffffffffffffffffffffffffffff16146110f2576040517f08c379a00000000000000000000000000000000000000000000000000000000081526004016110e990612094565b60405180910390fd5b600360058111156111065761110561183c565b5b600860009054906101000a900460ff1660058111156111285761112761183c565b5b1415611169576040517f08c379a00000000000000000000000000000000000000000000000000000000081526004016111609061216c565b60405180910390fd5b60058081111561117c5761117b61183c565b5b600860009054906101000a900460ff16600581111561119e5761119d61183c565b5b14156111df576040517f08c379a00000000000000000000000000000000000000000000000000000000081526004016111d6906121d8565b60405180910390fd5b600460058111156111f3576111f261183c565b5b600860009054906101000a900460ff1660058111156112155761121461183c565b5b1461121f57600080fd5b6005600860006101000a81548160ff021916908360058111156112455761124461183c565b5b0217905550600860009054906101000a900460ff16600581111561126c5761126b61183c565b5b7f268f1153844c3ed9f77b7cabc4fedb9d9994a5361b583f824ffbe523f3739e6560405160405180910390a26000600654116112a757600080fd5b600060068190555060008054906101000a900473ffffffffffffffffffffffffffffffffffffffff1673ffffffffffffffffffffffffffffffffffffffff166108fc479081150290604051600060405180830381858888f19350505050158015611315573d6000803e3d6000fd5b50565b60055481565b600860009054906101000a900460ff1681565b600060055411611376576040517f08c379a000000000000000000000000000000000000000000000000000000000815260040161136d9061237d565b60405180910390fd5b6000600581111561138a5761138961183c565b5b600860009054906101000a900460ff1660058111156113ac576113ab61183c565b5b146113ec576040517f08c379a00000000000000000000000000000000000000000000000000000000081526004016113e3906123e9565b60405180910390fd5b80600660008282546113fe9190612438565b925050819055508060056000828254611417919061248e565b92505081905550600060055414156114a3576001600860006101000a81548160ff0219169083600581111561144f5761144e61183c565b5b0217905550600860009054906101000a900460ff1660058111156114765761147561183c565b5b7f268f1153844c3ed9f77b7cabc4fedb9d9994a5361b583f824ffbe523f3739e6560405160405180910390a25b50565b60606003805480602002602001604051908101604052809291908181526020016000905b8282101561163457838290600052602060002090600402016040518060800160405290816000820180546114fd906122ff565b80601f0160208091040260200160405190810160405280929190818152602001828054611529906122ff565b80156115765780601f1061154b57610100808354040283529160200191611576565b820191906000526020600020905b81548152906001019060200180831161155957829003601f168201915b5050505050815260200160018201805461158f906122ff565b80601f01602080910402602001604051908101604052809291908181526020018280546115bb906122ff565b80156116085780601f106115dd57610100808354040283529160200191611608565b820191906000526020600020905b8154815290600101906020018083116115eb57829003601f168201915b5050505050815260200160028201548152602001600382015481525050815260200190600101906114ca565b50505050905090565b60065481565b60008060009054906101000a900473ffffffffffffffffffffffffffffffffffffffff16905090565b600080600090505b6003805490508110156116f75760038181548110611695576116946124c2565b5b906000526020600020906004020160030154600382815481106116bb576116ba6124c2565b5b9060005260206000209060040201600201546116d791906124f1565b826116e29190612438565b915080806116ef9061254b565b915050611674565b50806004819055508060058190555050565b828054611715906122ff565b90600052602060002090601f016020900481019282611737576000855561177e565b82601f1061175057805160ff191683800117855561177e565b8280016001018555821561177e579182015b8281111561177d578251825591602001919060010190611762565b5b50905061178b919061178f565b5090565b5b808211156117a8576000816000905550600101611790565b5090565b6000819050919050565b6117bf816117ac565b82525050565b60006020820190506117da60008301846117b6565b92915050565b600073ffffffffffffffffffffffffffffffffffffffff82169050919050565b600061180b826117e0565b9050919050565b61181b81611800565b82525050565b60006020820190506118366000830184611812565b92915050565b7f4e487b7100000000000000000000000000000000000000000000000000000000600052602160045260246000fd5b6006811061187c5761187b61183c565b5b50565b600081905061188d8261186b565b919050565b600061189d8261187f565b9050919050565b6118ad81611892565b82525050565b60006020820190506118c860008301846118a4565b92915050565b6000604051905090565b600080fd5b600080fd5b600080fd5b600080fd5b6000601f19601f8301169050919050565b7f4e487b7100000000000000000000000000000000000000000000000000000000600052604160045260246000fd5b611935826118ec565b810181811067ffffffffffffffff82111715611954576119536118fd565b5b80604052505050565b60006119676118ce565b9050611973828261192c565b919050565b600067ffffffffffffffff821115611993576119926118fd565b5b61199c826118ec565b9050602081019050919050565b82818337600083830152505050565b60006119cb6119c684611978565b61195d565b9050828152602081018484840111156119e7576119e66118e7565b5b6119f28482856119a9565b509392505050565b600082601f830112611a0f57611a0e6118e2565b5b8135611a1f8482602086016119b8565b91505092915050565b611a31816117ac565b8114611a3c57600080fd5b50565b600081359050611a4e81611a28565b92915050565b60008060008060808587031215611a6e57611a6d6118d8565b5b600085013567ffffffffffffffff811115611a8c57611a8b6118dd565b5b611a98878288016119fa565b945050602085013567ffffffffffffffff811115611ab957611ab86118dd565b5b611ac5878288016119fa565b9350506040611ad687828801611a3f565b9250506060611ae787828801611a3f565b91505092959194509250565b611afc81611800565b8114611b0757600080fd5b50565b600081359050611b1981611af3565b92915050565b600060208284031215611b3557611b346118d8565b5b6000611b4384828501611b0a565b91505092915050565b6000611b57826117e0565b9050919050565b611b6781611b4c565b82525050565b6000602082019050611b826000830184611b5e565b92915050565b600060208284031215611b9e57611b9d6118d8565b5b6000611bac84828501611a3f565b91505092915050565b600081519050919050565b600082825260208201905092915050565b60005b83811015611bef578082015181840152602081019050611bd4565b83811115611bfe576000848401525b50505050565b6000611c0f82611bb5565b611c198185611bc0565b9350611c29818560208601611bd1565b611c32816118ec565b840191505092915050565b60006080820190508181036000830152611c578187611c04565b90508181036020830152611c6b8186611c04565b9050611c7a60408301856117b6565b611c8760608301846117b6565b95945050505050565b600081519050919050565b600082825260208201905092915050565b6000819050602082019050919050565b600082825260208201905092915050565b6000611cd882611bb5565b611ce28185611cbc565b9350611cf2818560208601611bd1565b611cfb816118ec565b840191505092915050565b611d0f816117ac565b82525050565b60006080830160008301518482036000860152611d328282611ccd565b91505060208301518482036020860152611d4c8282611ccd565b9150506040830151611d616040860182611d06565b506060830151611d746060860182611d06565b508091505092915050565b6000611d8b8383611d15565b905092915050565b6000602082019050919050565b6000611dab82611c90565b611db58185611c9b565b935083602082028501611dc785611cac565b8060005b85811015611e035784840389528151611de48582611d7f565b9450611def83611d93565b925060208a01995050600181019050611dcb565b50829750879550505050505092915050565b60006020820190508181036000830152611e2f8184611da0565b905092915050565b7f4f6e6c7920637573746f6d65722063616e2075736520746869732066756e637460008201527f696f6e2e00000000000000000000000000000000000000000000000000000000602082015250565b6000611e93602483611bc0565b9150611e9e82611e37565b604082019050919050565b60006020820190508181036000830152611ec281611e86565b9050919050565b600081905092915050565b6000611edf82611bb5565b611ee98185611ec9565b9350611ef9818560208601611bd1565b611f02816118ec565b840191505092915050565b6000611f198383611ed4565b905092915050565b611f2a816117ac565b82525050565b6000611f3c8383611f21565b60208301905092915050565b60008083016000830151611f5c8582611f0d565b9450506020830151611f6e8582611f0d565b9450506040830151611f808582611f30565b9450506060830151611f928582611f30565b9450508391505092915050565b6000611fab8284611f48565b915081905092915050565b7f43616e6e6f742077697468647261770000000000000000000000000000000000600082015250565b6000611fec600f83611bc0565b9150611ff782611fb6565b602082019050919050565b6000602082019050818103600083015261201b81611fdf565b9050919050565b7f4f6e6c79206465616c65722063616e2075736520746869732066756e6374696f60008201527f6e2e000000000000000000000000000000000000000000000000000000000000602082015250565b600061207e602283611bc0565b915061208982612022565b604082019050919050565b600060208201905081810360008301526120ad81612071565b9050919050565b7f4e6f742070616964210000000000000000000000000000000000000000000000600082015250565b60006120ea600983611bc0565b91506120f5826120b4565b602082019050919050565b60006020820190508181036000830152612119816120dd565b9050919050565b7f436865636b696e6720726566756e642100000000000000000000000000000000600082015250565b6000612156601083611bc0565b915061216182612120565b602082019050919050565b6000602082019050818103600083015261218581612149565b9050919050565b7f4e6f742063616c6c61626c652100000000000000000000000000000000000000600082015250565b60006121c2600d83611bc0565b91506121cd8261218c565b602082019050919050565b600060208201905081810360008301526121f1816121b5565b9050919050565b7f4e6f742063616c6c61626c650000000000000000000000000000000000000000600082015250565b600061222e600c83611bc0565b9150612239826121f8565b602082019050919050565b6000602082019050818103600083015261225d81612221565b9050919050565b7f4f6e6c7920766563746f722063616e2064656c65676174652e00000000000000600082015250565b600061229a601983611bc0565b91506122a582612264565b602082019050919050565b600060208201905081810360008301526122c98161228d565b9050919050565b7f4e487b7100000000000000000000000000000000000000000000000000000000600052602260045260246000fd5b6000600282049050600182168061231757607f821691505b6020821081141561232b5761232a6122d0565b5b50919050565b7f506c6561736520696e7365727420736f6d652070726f64756374210000000000600082015250565b6000612367601b83611bc0565b915061237282612331565b602082019050919050565b600060208201905081810360008301526123968161235a565b9050919050565b7f416c726561647920706169642100000000000000000000000000000000000000600082015250565b60006123d3600d83611bc0565b91506123de8261239d565b602082019050919050565b60006020820190508181036000830152612402816123c6565b9050919050565b7f4e487b7100000000000000000000000000000000000000000000000000000000600052601160045260246000fd5b6000612443826117ac565b915061244e836117ac565b9250827fffffffffffffffffffffffffffffffffffffffffffffffffffffffffffffffff0382111561248357612482612409565b5b828201905092915050565b6000612499826117ac565b91506124a4836117ac565b9250828210156124b7576124b6612409565b5b828203905092915050565b7f4e487b7100000000000000000000000000000000000000000000000000000000600052603260045260246000fd5b60006124fc826117ac565b9150612507836117ac565b9250817fffffffffffffffffffffffffffffffffffffffffffffffffffffffffffffffff04831182151516156125405761253f612409565b5b828202905092915050565b6000612556826117ac565b91507fffffffffffffffffffffffffffffffffffffffffffffffffffffffffffffffff82141561258957612588612409565b5b60018201905091905056fea2646970667358221220b8c73cbaa067fa69171b0eec4428cf2fe59db70ba564fde40647180175b32c6d64736f6c63430008090033",
  "linkReferences": {},
  "deployedLinkReferences": {}
}