{
  "_format": "hh-sol-artifact-1",
  "contractName": "logistic",
  "sourceName": "chain/contracts/logistic.sol",
  "abi": [
    {
      "inputs": [
        {
          "internalType": "address payable",
          "name": "_buyer",
          "type": "address"
        }
      ],
      "stateMutability": "nonpayable",
      "type": "constructor"
    },
    {
      "anonymous": false,
      "inputs": [
        {
          "indexed": true,
          "internalType": "enum logistic.stateOfShipping",
          "name": "",
          "type": "uint8"
        }
      ],
      "name": "changeState",
      "type": "event"
    },
    {
      "anonymous": false,
      "inputs": [
        {
          "indexed": true,
          "internalType": "address",
          "name": "",
          "type": "address"
        }
      ],
      "name": "handover",
      "type": "event"
    },
    {
      "anonymous": false,
      "inputs": [
        {
          "components": [
            {
              "internalType": "string",
              "name": "id",
              "type": "string"
            },
            {
              "internalType": "string",
              "name": "description",
              "type": "string"
            },
            {
              "internalType": "uint256",
              "name": "price",
              "type": "uint256"
            },
            {
              "internalType": "uint256",
              "name": "quantity",
              "type": "uint256"
            }
          ],
          "indexed": true,
          "internalType": "struct logistic.Product",
          "name": "",
          "type": "tuple"
        }
      ],
      "name": "productAdd",
      "type": "event"
    },
    {
      "inputs": [],
      "name": "buyer",
      "outputs": [
        {
          "internalType": "address payable",
          "name": "",
          "type": "address"
        }
      ],
      "stateMutability": "view",
      "type": "function"
    },
    {
      "inputs": [],
      "name": "calculateTotal",
      "outputs": [],
      "stateMutability": "nonpayable",
      "type": "function"
    },
    {
      "inputs": [
        {
          "internalType": "address",
          "name": "_delegate",
          "type": "address"
        }
      ],
      "name": "delegate",
      "outputs": [],
      "stateMutability": "nonpayable",
      "type": "function"
    },
    {
      "inputs": [],
      "name": "funds",
      "outputs": [
        {
          "internalType": "uint256",
          "name": "",
          "type": "uint256"
        }
      ],
      "stateMutability": "view",
      "type": "function"
    },
    {
      "inputs": [],
      "name": "gain",
      "outputs": [],
      "stateMutability": "nonpayable",
      "type": "function"
    },
    {
      "inputs": [],
      "name": "getBuyer",
      "outputs": [
        {
          "internalType": "address",
          "name": "",
          "type": "address"
        }
      ],
      "stateMutability": "view",
      "type": "function"
    },
    {
      "inputs": [],
      "name": "getProducts",
      "outputs": [
        {
          "components": [
            {
              "internalType": "string",
              "name": "id",
              "type": "string"
            },
            {
              "internalType": "string",
              "name": "description",
              "type": "string"
            },
            {
              "internalType": "uint256",
              "name": "price",
              "type": "uint256"
            },
            {
              "internalType": "uint256",
              "name": "quantity",
              "type": "uint256"
            }
          ],
          "internalType": "struct logistic.Product[]",
          "name": "",
          "type": "tuple[]"
        }
      ],
      "stateMutability": "view",
      "type": "function"
    },
    {
      "inputs": [],
      "name": "getSeller",
      "outputs": [
        {
          "internalType": "address",
          "name": "",
          "type": "address"
        }
      ],
      "stateMutability": "view",
      "type": "function"
    },
    {
      "inputs": [],
      "name": "getState",
      "outputs": [
        {
          "internalType": "enum logistic.stateOfShipping",
          "name": "",
          "type": "uint8"
        }
      ],
      "stateMutability": "view",
      "type": "function"
    },
    {
      "inputs": [],
      "name": "getTransport",
      "outputs": [
        {
          "internalType": "address",
          "name": "",
          "type": "address"
        }
      ],
      "stateMutability": "view",
      "type": "function"
    },
    {
      "inputs": [
        {
          "internalType": "string",
          "name": "_id",
          "type": "string"
        },
        {
          "internalType": "string",
          "name": "_description",
          "type": "string"
        },
        {
          "internalType": "uint256",
          "name": "_price",
          "type": "uint256"
        },
        {
          "internalType": "uint256",
          "name": "_quantity",
          "type": "uint256"
        }
      ],
      "name": "insertProduct",
      "outputs": [],
      "stateMutability": "nonpayable",
      "type": "function"
    },
    {
      "inputs": [
        {
          "internalType": "uint256",
          "name": "_pay",
          "type": "uint256"
        }
      ],
      "name": "pay",
      "outputs": [],
      "stateMutability": "payable",
      "type": "function"
    },
    {
      "inputs": [],
      "name": "pendingReturns",
      "outputs": [
        {
          "internalType": "uint256",
          "name": "",
          "type": "uint256"
        }
      ],
      "stateMutability": "view",
      "type": "function"
    },
    {
      "inputs": [
        {
          "internalType": "uint256",
          "name": "",
          "type": "uint256"
        }
      ],
      "name": "product",
      "outputs": [
        {
          "internalType": "string",
          "name": "id",
          "type": "string"
        },
        {
          "internalType": "string",
          "name": "description",
          "type": "string"
        },
        {
          "internalType": "uint256",
          "name": "price",
          "type": "uint256"
        },
        {
          "internalType": "uint256",
          "name": "quantity",
          "type": "uint256"
        }
      ],
      "stateMutability": "view",
      "type": "function"
    },
    {
      "inputs": [],
      "name": "received",
      "outputs": [],
      "stateMutability": "nonpayable",
      "type": "function"
    },
    {
      "inputs": [],
      "name": "refund",
      "outputs": [],
      "stateMutability": "nonpayable",
      "type": "function"
    },
    {
      "inputs": [],
      "name": "seller",
      "outputs": [
        {
          "internalType": "address",
          "name": "",
          "type": "address"
        }
      ],
      "stateMutability": "view",
      "type": "function"
    },
    {
      "inputs": [],
      "name": "state",
      "outputs": [
        {
          "internalType": "enum logistic.stateOfShipping",
          "name": "",
          "type": "uint8"
        }
      ],
      "stateMutability": "view",
      "type": "function"
    },
    {
      "inputs": [],
      "name": "toPay",
      "outputs": [
        {
          "internalType": "uint256",
          "name": "",
          "type": "uint256"
        }
      ],
      "stateMutability": "view",
      "type": "function"
    },
    {
      "inputs": [],
      "name": "transport",
      "outputs": [
        {
          "internalType": "address",
          "name": "",
          "type": "address"
        }
      ],
      "stateMutability": "view",
      "type": "function"
    },
    {
      "inputs": [
        {
          "internalType": "address",
          "name": "_transport",
          "type": "address"
        }
      ],
      "name": "transportation",
      "outputs": [],
      "stateMutability": "nonpayable",
      "type": "function"
    },
    {
      "inputs": [],
      "name": "withdraw",
      "outputs": [],
      "stateMutability": "nonpayable",
      "type": "function"
    }
  ],
  "bytecode": "0x60806040523480156200001157600080fd5b50604051620026d4380380620026d4833981810160405281019062000037919062000129565b336000806101000a81548173ffffffffffffffffffffffffffffffffffffffff021916908373ffffffffffffffffffffffffffffffffffffffff16021790555080600160006101000a81548173ffffffffffffffffffffffffffffffffffffffff021916908373ffffffffffffffffffffffffffffffffffffffff160217905550506200015b565b600080fd5b600073ffffffffffffffffffffffffffffffffffffffff82169050919050565b6000620000f182620000c4565b9050919050565b6200010381620000e4565b81146200010f57600080fd5b50565b6000815190506200012381620000f8565b92915050565b600060208284031215620001425762000141620000bf565b5b6000620001528482850162000112565b91505092915050565b612569806200016b6000396000f3fe6080604052600436106101355760003560e01c80637150d8ae116100ab578063c19d93fb1161006f578063c19d93fb146103a9578063c290d691146103d4578063c29b2f20146103f0578063c89f2ce41461041b578063dbd0e1b614610446578063e2f3d4b51461047157610135565b80637150d8ae146102e5578063780bd3f11461031057806383a6deb5146103505780639926223c146103675780639954882c1461037e57610135565b80633420924a116100fd5780633420924a1461020f5780633ccfd60b1461023a57806351105d3314610251578063590e1ae31461027a5780635c19a95c14610291578063603daf9a146102ba57610135565b806304ac1db71461013a57806308551a53146101655780631865c57d146101905780632cf87b13146101bb5780632f7bd389146101e6575b600080fd5b34801561014657600080fd5b5061014f610488565b60405161015c9190611764565b60405180910390f35b34801561017157600080fd5b5061017a61048e565b60405161018791906117c0565b60405180910390f35b34801561019c57600080fd5b506101a56104b2565b6040516101b29190611852565b60405180910390f35b3480156101c757600080fd5b506101d06104c9565b6040516101dd91906117c0565b60405180910390f35b3480156101f257600080fd5b5061020d600480360381019061020891906119f3565b6104ef565b005b34801561021b57600080fd5b50610224610671565b60405161023191906117c0565b60405180910390f35b34801561024657600080fd5b5061024f61069b565b005b34801561025d57600080fd5b5061027860048036038101906102739190611abe565b6107e3565b005b34801561028657600080fd5b5061028f6109e7565b005b34801561029d57600080fd5b506102b860048036038101906102b39190611abe565b610bfa565b005b3480156102c657600080fd5b506102cf610d5f565b6040516102dc91906117c0565b60405180910390f35b3480156102f157600080fd5b506102fa610d89565b6040516103079190611b0c565b60405180910390f35b34801561031c57600080fd5b5061033760048036038101906103329190611b27565b610daf565b6040516103479493929190611bdc565b60405180910390f35b34801561035c57600080fd5b50610365610eff565b005b34801561037357600080fd5b5061037c61100a565b005b34801561038a57600080fd5b506103936112be565b6040516103a09190611764565b60405180910390f35b3480156103b557600080fd5b506103be6112c4565b6040516103cb9190611852565b60405180910390f35b6103ee60048036038101906103e99190611b27565b6112d7565b005b3480156103fc57600080fd5b5061040561144c565b6040516104129190611db4565b60405180910390f35b34801561042757600080fd5b506104306115e3565b60405161043d9190611764565b60405180910390f35b34801561045257600080fd5b5061045b6115e9565b60405161046891906117c0565b60405180910390f35b34801561047d57600080fd5b50610486611612565b005b60065481565b60008054906101000a900473ffffffffffffffffffffffffffffffffffffffff1681565b6000600760009054906101000a900460ff16905090565b600260009054906101000a900473ffffffffffffffffffffffffffffffffffffffff1681565b600160009054906101000a900473ffffffffffffffffffffffffffffffffffffffff1673ffffffffffffffffffffffffffffffffffffffff163373ffffffffffffffffffffffffffffffffffffffff161461057f576040517f08c379a000000000000000000000000000000000000000000000000000000000815260040161057690611e48565b60405180910390fd5b60006040518060800160405280868152602001858152602001848152602001838152509050600381908060018154018082558091505060019003906000526020600020906004020160009091909190915060008201518160000190805190602001906105ec9291906116a8565b5060208201518160010190805190602001906106099291906116a8565b50604082015181600201556060820151816003015550508060405161062e9190611f3e565b60405180910390207f53205550e89634ecef8d267ad2bca651ec10907539c31b4ebd324d33e0f2441560405160405180910390a261066a611612565b5050505050565b6000600260009054906101000a900473ffffffffffffffffffffffffffffffffffffffff16905090565b600160009054906101000a900473ffffffffffffffffffffffffffffffffffffffff1673ffffffffffffffffffffffffffffffffffffffff163373ffffffffffffffffffffffffffffffffffffffff161461072b576040517f08c379a000000000000000000000000000000000000000000000000000000000815260040161072290611e48565b60405180910390fd5b600060065411610770576040517f08c379a000000000000000000000000000000000000000000000000000000000815260040161076790611fa1565b60405180910390fd5b6000600681905550600160009054906101000a900473ffffffffffffffffffffffffffffffffffffffff1673ffffffffffffffffffffffffffffffffffffffff166108fc479081150290604051600060405180830381858888f193505050501580156107e0573d6000803e3d6000fd5b50565b60008054906101000a900473ffffffffffffffffffffffffffffffffffffffff1673ffffffffffffffffffffffffffffffffffffffff163373ffffffffffffffffffffffffffffffffffffffff1614610871576040517f08c379a000000000000000000000000000000000000000000000000000000000815260040161086890612033565b60405180910390fd5b60016005811115610885576108846117db565b5b600760009054906101000a900460ff1660058111156108a7576108a66117db565b5b146108e7576040517f08c379a00000000000000000000000000000000000000000000000000000000081526004016108de9061209f565b60405180910390fd5b80600260006101000a81548173ffffffffffffffffffffffffffffffffffffffff021916908373ffffffffffffffffffffffffffffffffffffffff1602179055506002600760006101000a81548160ff0219169083600581111561094e5761094d6117db565b5b0217905550600760009054906101000a900460ff166005811115610975576109746117db565b5b7f268f1153844c3ed9f77b7cabc4fedb9d9994a5361b583f824ffbe523f3739e6560405160405180910390a28073ffffffffffffffffffffffffffffffffffffffff167f3ff4d08335c24b48079a25a3a3cb09d8c913631430f829ec6e529c70ca63008860405160405180910390a250565b600360058111156109fb576109fa6117db565b5b600760009054906101000a900460ff166005811115610a1d57610a1c6117db565b5b1415610a5e576040517f08c379a0000000000000000000000000000000000000000000000000000000008152600401610a559061210b565b60405180910390fd5b600580811115610a7157610a706117db565b5b600760009054906101000a900460ff166005811115610a9357610a926117db565b5b1415610ad4576040517f08c379a0000000000000000000000000000000000000000000000000000000008152600401610acb90612177565b60405180910390fd5b600060055411610b19576040517f08c379a0000000000000000000000000000000000000000000000000000000008152600401610b10906121e3565b60405180910390fd5b60008054906101000a900473ffffffffffffffffffffffffffffffffffffffff1673ffffffffffffffffffffffffffffffffffffffff163373ffffffffffffffffffffffffffffffffffffffff161415610b7f5760055460068190555060006005819055505b6003600760006101000a81548160ff02191690836005811115610ba557610ba46117db565b5b0217905550600760009054906101000a900460ff166005811115610bcc57610bcb6117db565b5b7f268f1153844c3ed9f77b7cabc4fedb9d9994a5361b583f824ffbe523f3739e6560405160405180910390a2565b600260009054906101000a900473ffffffffffffffffffffffffffffffffffffffff1673ffffffffffffffffffffffffffffffffffffffff163373ffffffffffffffffffffffffffffffffffffffff1614610c8a576040517f08c379a0000000000000000000000000000000000000000000000000000000008152600401610c819061224f565b60405180910390fd5b80600260006101000a81548173ffffffffffffffffffffffffffffffffffffffff021916908373ffffffffffffffffffffffffffffffffffffffff160217905550600760009054906101000a900460ff166005811115610ced57610cec6117db565b5b7f268f1153844c3ed9f77b7cabc4fedb9d9994a5361b583f824ffbe523f3739e6560405160405180910390a28073ffffffffffffffffffffffffffffffffffffffff167f3ff4d08335c24b48079a25a3a3cb09d8c913631430f829ec6e529c70ca63008860405160405180910390a250565b6000600160009054906101000a900473ffffffffffffffffffffffffffffffffffffffff16905090565b600160009054906101000a900473ffffffffffffffffffffffffffffffffffffffff1681565b60038181548110610dbf57600080fd5b9060005260206000209060040201600091509050806000018054610de29061229e565b80601f0160208091040260200160405190810160405280929190818152602001828054610e0e9061229e565b8015610e5b5780601f10610e3057610100808354040283529160200191610e5b565b820191906000526020600020905b815481529060010190602001808311610e3e57829003601f168201915b505050505090806001018054610e709061229e565b80601f0160208091040260200160405190810160405280929190818152602001828054610e9c9061229e565b8015610ee95780601f10610ebe57610100808354040283529160200191610ee9565b820191906000526020600020905b815481529060010190602001808311610ecc57829003601f168201915b5050505050908060020154908060030154905084565b600260009054906101000a900473ffffffffffffffffffffffffffffffffffffffff1673ffffffffffffffffffffffffffffffffffffffff163373ffffffffffffffffffffffffffffffffffffffff1614610f8f576040517f08c379a0000000000000000000000000000000000000000000000000000000008152600401610f869061224f565b60405180910390fd5b6004600760006101000a81548160ff02191690836005811115610fb557610fb46117db565b5b0217905550600760009054906101000a900460ff166005811115610fdc57610fdb6117db565b5b7f268f1153844c3ed9f77b7cabc4fedb9d9994a5361b583f824ffbe523f3739e6560405160405180910390a2565b60008054906101000a900473ffffffffffffffffffffffffffffffffffffffff1673ffffffffffffffffffffffffffffffffffffffff163373ffffffffffffffffffffffffffffffffffffffff1614611098576040517f08c379a000000000000000000000000000000000000000000000000000000000815260040161108f90612033565b60405180910390fd5b600360058111156110ac576110ab6117db565b5b600760009054906101000a900460ff1660058111156110ce576110cd6117db565b5b141561110f576040517f08c379a00000000000000000000000000000000000000000000000000000000081526004016111069061210b565b60405180910390fd5b600580811115611122576111216117db565b5b600760009054906101000a900460ff166005811115611144576111436117db565b5b1415611185576040517f08c379a000000000000000000000000000000000000000000000000000000000815260040161117c90612177565b60405180910390fd5b60046005811115611199576111986117db565b5b600760009054906101000a900460ff1660058111156111bb576111ba6117db565b5b146111c557600080fd5b6005600760006101000a81548160ff021916908360058111156111eb576111ea6117db565b5b0217905550600760009054906101000a900460ff166005811115611212576112116117db565b5b7f268f1153844c3ed9f77b7cabc4fedb9d9994a5361b583f824ffbe523f3739e6560405160405180910390a260006005541161124d57600080fd5b600060058190555060008054906101000a900473ffffffffffffffffffffffffffffffffffffffff1673ffffffffffffffffffffffffffffffffffffffff166108fc479081150290604051600060405180830381858888f193505050501580156112bb573d6000803e3d6000fd5b50565b60045481565b600760009054906101000a900460ff1681565b60006004541161131c576040517f08c379a00000000000000000000000000000000000000000000000000000000081526004016113139061231c565b60405180910390fd5b600060058111156113305761132f6117db565b5b600760009054906101000a900460ff166005811115611352576113516117db565b5b14611392576040517f08c379a000000000000000000000000000000000000000000000000000000000815260040161138990612388565b60405180910390fd5b80600560008282546113a491906123d7565b9250508190555080600460008282546113bd919061242d565b9250508190555060006004541415611449576001600760006101000a81548160ff021916908360058111156113f5576113f46117db565b5b0217905550600760009054906101000a900460ff16600581111561141c5761141b6117db565b5b7f268f1153844c3ed9f77b7cabc4fedb9d9994a5361b583f824ffbe523f3739e6560405160405180910390a25b50565b60606003805480602002602001604051908101604052809291908181526020016000905b828210156115da57838290600052602060002090600402016040518060800160405290816000820180546114a39061229e565b80601f01602080910402602001604051908101604052809291908181526020018280546114cf9061229e565b801561151c5780601f106114f15761010080835404028352916020019161151c565b820191906000526020600020905b8154815290600101906020018083116114ff57829003601f168201915b505050505081526020016001820180546115359061229e565b80601f01602080910402602001604051908101604052809291908181526020018280546115619061229e565b80156115ae5780601f10611583576101008083540402835291602001916115ae565b820191906000526020600020905b81548152906001019060200180831161159157829003601f168201915b505050505081526020016002820154815260200160038201548152505081526020019060010190611470565b50505050905090565b60055481565b60008060009054906101000a900473ffffffffffffffffffffffffffffffffffffffff16905090565b600080600090505b60038054905081101561169d576003818154811061163b5761163a612461565b5b9060005260206000209060040201600301546003828154811061166157611660612461565b5b90600052602060002090600402016002015461167d9190612490565b8261168891906123d7565b91508080611695906124ea565b91505061161a565b508060048190555050565b8280546116b49061229e565b90600052602060002090601f0160209004810192826116d6576000855561171d565b82601f106116ef57805160ff191683800117855561171d565b8280016001018555821561171d579182015b8281111561171c578251825591602001919060010190611701565b5b50905061172a919061172e565b5090565b5b8082111561174757600081600090555060010161172f565b5090565b6000819050919050565b61175e8161174b565b82525050565b60006020820190506117796000830184611755565b92915050565b600073ffffffffffffffffffffffffffffffffffffffff82169050919050565b60006117aa8261177f565b9050919050565b6117ba8161179f565b82525050565b60006020820190506117d560008301846117b1565b92915050565b7f4e487b7100000000000000000000000000000000000000000000000000000000600052602160045260246000fd5b6006811061181b5761181a6117db565b5b50565b600081905061182c8261180a565b919050565b600061183c8261181e565b9050919050565b61184c81611831565b82525050565b60006020820190506118676000830184611843565b92915050565b6000604051905090565b600080fd5b600080fd5b600080fd5b600080fd5b6000601f19601f8301169050919050565b7f4e487b7100000000000000000000000000000000000000000000000000000000600052604160045260246000fd5b6118d48261188b565b810181811067ffffffffffffffff821117156118f3576118f261189c565b5b80604052505050565b600061190661186d565b905061191282826118cb565b919050565b600067ffffffffffffffff8211156119325761193161189c565b5b61193b8261188b565b9050602081019050919050565b82818337600083830152505050565b600061196a61196584611917565b6118fc565b90508281526020810184848401111561198657611985611886565b5b611991848285611948565b509392505050565b600082601f8301126119ae576119ad611881565b5b81356119be848260208601611957565b91505092915050565b6119d08161174b565b81146119db57600080fd5b50565b6000813590506119ed816119c7565b92915050565b60008060008060808587031215611a0d57611a0c611877565b5b600085013567ffffffffffffffff811115611a2b57611a2a61187c565b5b611a3787828801611999565b945050602085013567ffffffffffffffff811115611a5857611a5761187c565b5b611a6487828801611999565b9350506040611a75878288016119de565b9250506060611a86878288016119de565b91505092959194509250565b611a9b8161179f565b8114611aa657600080fd5b50565b600081359050611ab881611a92565b92915050565b600060208284031215611ad457611ad3611877565b5b6000611ae284828501611aa9565b91505092915050565b6000611af68261177f565b9050919050565b611b0681611aeb565b82525050565b6000602082019050611b216000830184611afd565b92915050565b600060208284031215611b3d57611b3c611877565b5b6000611b4b848285016119de565b91505092915050565b600081519050919050565b600082825260208201905092915050565b60005b83811015611b8e578082015181840152602081019050611b73565b83811115611b9d576000848401525b50505050565b6000611bae82611b54565b611bb88185611b5f565b9350611bc8818560208601611b70565b611bd18161188b565b840191505092915050565b60006080820190508181036000830152611bf68187611ba3565b90508181036020830152611c0a8186611ba3565b9050611c196040830185611755565b611c266060830184611755565b95945050505050565b600081519050919050565b600082825260208201905092915050565b6000819050602082019050919050565b600082825260208201905092915050565b6000611c7782611b54565b611c818185611c5b565b9350611c91818560208601611b70565b611c9a8161188b565b840191505092915050565b611cae8161174b565b82525050565b60006080830160008301518482036000860152611cd18282611c6c565b91505060208301518482036020860152611ceb8282611c6c565b9150506040830151611d006040860182611ca5565b506060830151611d136060860182611ca5565b508091505092915050565b6000611d2a8383611cb4565b905092915050565b6000602082019050919050565b6000611d4a82611c2f565b611d548185611c3a565b935083602082028501611d6685611c4b565b8060005b85811015611da25784840389528151611d838582611d1e565b9450611d8e83611d32565b925060208a01995050600181019050611d6a565b50829750879550505050505092915050565b60006020820190508181036000830152611dce8184611d3f565b905092915050565b7f4f6e6c7920637573746f6d65722063616e2075736520746869732066756e637460008201527f696f6e2e00000000000000000000000000000000000000000000000000000000602082015250565b6000611e32602483611b5f565b9150611e3d82611dd6565b604082019050919050565b60006020820190508181036000830152611e6181611e25565b9050919050565b600081905092915050565b6000611e7e82611b54565b611e888185611e68565b9350611e98818560208601611b70565b611ea18161188b565b840191505092915050565b6000611eb88383611e73565b905092915050565b611ec98161174b565b82525050565b6000611edb8383611ec0565b60208301905092915050565b60008083016000830151611efb8582611eac565b9450506020830151611f0d8582611eac565b9450506040830151611f1f8582611ecf565b9450506060830151611f318582611ecf565b9450508391505092915050565b6000611f4a8284611ee7565b915081905092915050565b7f43616e6e6f742077697468647261770000000000000000000000000000000000600082015250565b6000611f8b600f83611b5f565b9150611f9682611f55565b602082019050919050565b60006020820190508181036000830152611fba81611f7e565b9050919050565b7f4f6e6c79206465616c65722063616e2075736520746869732066756e6374696f60008201527f6e2e000000000000000000000000000000000000000000000000000000000000602082015250565b600061201d602283611b5f565b915061202882611fc1565b604082019050919050565b6000602082019050818103600083015261204c81612010565b9050919050565b7f4e6f742070616964210000000000000000000000000000000000000000000000600082015250565b6000612089600983611b5f565b915061209482612053565b602082019050919050565b600060208201905081810360008301526120b88161207c565b9050919050565b7f436865636b696e6720726566756e642100000000000000000000000000000000600082015250565b60006120f5601083611b5f565b9150612100826120bf565b602082019050919050565b60006020820190508181036000830152612124816120e8565b9050919050565b7f4e6f742063616c6c61626c652100000000000000000000000000000000000000600082015250565b6000612161600d83611b5f565b915061216c8261212b565b602082019050919050565b6000602082019050818103600083015261219081612154565b9050919050565b7f4e6f742063616c6c61626c650000000000000000000000000000000000000000600082015250565b60006121cd600c83611b5f565b91506121d882612197565b602082019050919050565b600060208201905081810360008301526121fc816121c0565b9050919050565b7f4f6e6c7920766563746f722063616e2064656c65676174652e00000000000000600082015250565b6000612239601983611b5f565b915061224482612203565b602082019050919050565b600060208201905081810360008301526122688161222c565b9050919050565b7f4e487b7100000000000000000000000000000000000000000000000000000000600052602260045260246000fd5b600060028204905060018216806122b657607f821691505b602082108114156122ca576122c961226f565b5b50919050565b7f506c6561736520696e7365727420736f6d652070726f64756374210000000000600082015250565b6000612306601b83611b5f565b9150612311826122d0565b602082019050919050565b60006020820190508181036000830152612335816122f9565b9050919050565b7f416c726561647920706169642100000000000000000000000000000000000000600082015250565b6000612372600d83611b5f565b915061237d8261233c565b602082019050919050565b600060208201905081810360008301526123a181612365565b9050919050565b7f4e487b7100000000000000000000000000000000000000000000000000000000600052601160045260246000fd5b60006123e28261174b565b91506123ed8361174b565b9250827fffffffffffffffffffffffffffffffffffffffffffffffffffffffffffffffff03821115612422576124216123a8565b5b828201905092915050565b60006124388261174b565b91506124438361174b565b925082821015612456576124556123a8565b5b828203905092915050565b7f4e487b7100000000000000000000000000000000000000000000000000000000600052603260045260246000fd5b600061249b8261174b565b91506124a68361174b565b9250817fffffffffffffffffffffffffffffffffffffffffffffffffffffffffffffffff04831182151516156124df576124de6123a8565b5b828202905092915050565b60006124f58261174b565b91507fffffffffffffffffffffffffffffffffffffffffffffffffffffffffffffffff821415612528576125276123a8565b5b60018201905091905056fea2646970667358221220da4478390915da73368334723dc956f62b38038c3bdd0783c69e31f8835e3c7164736f6c63430008090033",
  "linkReferences": {},
  "deployedLinkReferences": {}
}