{
  "_format": "hh-sol-artifact-1",
  "contractName": "logistic",
  "sourceName": "chain/contracts/logistic.sol",
  "abi": [
    {
      "inputs": [
        {
          "internalType": "address payable",
          "name": "_buyer",
          "type": "address"
        }
      ],
      "stateMutability": "nonpayable",
      "type": "constructor"
    },
    {
      "anonymous": false,
      "inputs": [
        {
          "indexed": true,
          "internalType": "enum logistic.stateOfShipping",
          "name": "",
          "type": "uint8"
        }
      ],
      "name": "changeState",
      "type": "event"
    },
    {
      "anonymous": false,
      "inputs": [
        {
          "indexed": true,
          "internalType": "address",
          "name": "",
          "type": "address"
        }
      ],
      "name": "handover",
      "type": "event"
    },
    {
      "anonymous": false,
      "inputs": [
        {
          "components": [
            {
              "internalType": "string",
              "name": "id",
              "type": "string"
            },
            {
              "internalType": "string",
              "name": "description",
              "type": "string"
            },
            {
              "internalType": "uint256",
              "name": "price",
              "type": "uint256"
            },
            {
              "internalType": "uint256",
              "name": "quantity",
              "type": "uint256"
            }
          ],
          "indexed": true,
          "internalType": "struct logistic.Product",
          "name": "",
          "type": "tuple"
        }
      ],
      "name": "productAdd",
      "type": "event"
    },
    {
      "inputs": [],
      "name": "buyer",
      "outputs": [
        {
          "internalType": "address payable",
          "name": "",
          "type": "address"
        }
      ],
      "stateMutability": "view",
      "type": "function"
    },
    {
      "inputs": [
        {
          "internalType": "address",
          "name": "_delegate",
          "type": "address"
        }
      ],
      "name": "delegate",
      "outputs": [],
      "stateMutability": "nonpayable",
      "type": "function"
    },
    {
      "inputs": [],
      "name": "funds",
      "outputs": [
        {
          "internalType": "uint256",
          "name": "",
          "type": "uint256"
        }
      ],
      "stateMutability": "view",
      "type": "function"
    },
    {
      "inputs": [],
      "name": "gain",
      "outputs": [],
      "stateMutability": "nonpayable",
      "type": "function"
    },
    {
      "inputs": [],
      "name": "getBuyer",
      "outputs": [
        {
          "internalType": "address",
          "name": "",
          "type": "address"
        }
      ],
      "stateMutability": "view",
      "type": "function"
    },
    {
      "inputs": [],
      "name": "getProducts",
      "outputs": [
        {
          "components": [
            {
              "internalType": "string",
              "name": "id",
              "type": "string"
            },
            {
              "internalType": "string",
              "name": "description",
              "type": "string"
            },
            {
              "internalType": "uint256",
              "name": "price",
              "type": "uint256"
            },
            {
              "internalType": "uint256",
              "name": "quantity",
              "type": "uint256"
            }
          ],
          "internalType": "struct logistic.Product[]",
          "name": "",
          "type": "tuple[]"
        }
      ],
      "stateMutability": "view",
      "type": "function"
    },
    {
      "inputs": [],
      "name": "getSeller",
      "outputs": [
        {
          "internalType": "address",
          "name": "",
          "type": "address"
        }
      ],
      "stateMutability": "view",
      "type": "function"
    },
    {
      "inputs": [],
      "name": "getState",
      "outputs": [
        {
          "internalType": "enum logistic.stateOfShipping",
          "name": "",
          "type": "uint8"
        }
      ],
      "stateMutability": "view",
      "type": "function"
    },
    {
      "inputs": [],
      "name": "getTransport",
      "outputs": [
        {
          "internalType": "address",
          "name": "",
          "type": "address"
        }
      ],
      "stateMutability": "view",
      "type": "function"
    },
    {
      "inputs": [
        {
          "internalType": "string",
          "name": "_id",
          "type": "string"
        },
        {
          "internalType": "string",
          "name": "_description",
          "type": "string"
        },
        {
          "internalType": "uint256",
          "name": "_price",
          "type": "uint256"
        },
        {
          "internalType": "uint256",
          "name": "_quantity",
          "type": "uint256"
        }
      ],
      "name": "insertProduct",
      "outputs": [],
      "stateMutability": "nonpayable",
      "type": "function"
    },
    {
      "inputs": [
        {
          "internalType": "uint256",
          "name": "_pay",
          "type": "uint256"
        }
      ],
      "name": "pay",
      "outputs": [],
      "stateMutability": "payable",
      "type": "function"
    },
    {
      "inputs": [],
      "name": "pendingReturns",
      "outputs": [
        {
          "internalType": "uint256",
          "name": "",
          "type": "uint256"
        }
      ],
      "stateMutability": "view",
      "type": "function"
    },
    {
      "inputs": [
        {
          "internalType": "uint256",
          "name": "",
          "type": "uint256"
        }
      ],
      "name": "product",
      "outputs": [
        {
          "internalType": "string",
          "name": "id",
          "type": "string"
        },
        {
          "internalType": "string",
          "name": "description",
          "type": "string"
        },
        {
          "internalType": "uint256",
          "name": "price",
          "type": "uint256"
        },
        {
          "internalType": "uint256",
          "name": "quantity",
          "type": "uint256"
        }
      ],
      "stateMutability": "view",
      "type": "function"
    },
    {
      "inputs": [],
      "name": "received",
      "outputs": [],
      "stateMutability": "nonpayable",
      "type": "function"
    },
    {
      "inputs": [],
      "name": "refund",
      "outputs": [],
      "stateMutability": "nonpayable",
      "type": "function"
    },
    {
      "inputs": [],
      "name": "seller",
      "outputs": [
        {
          "internalType": "address",
          "name": "",
          "type": "address"
        }
      ],
      "stateMutability": "view",
      "type": "function"
    },
    {
      "inputs": [],
      "name": "state",
      "outputs": [
        {
          "internalType": "enum logistic.stateOfShipping",
          "name": "",
          "type": "uint8"
        }
      ],
      "stateMutability": "view",
      "type": "function"
    },
    {
      "inputs": [],
      "name": "toPay",
      "outputs": [
        {
          "internalType": "uint256",
          "name": "",
          "type": "uint256"
        }
      ],
      "stateMutability": "view",
      "type": "function"
    },
    {
      "inputs": [],
      "name": "transport",
      "outputs": [
        {
          "internalType": "address",
          "name": "",
          "type": "address"
        }
      ],
      "stateMutability": "view",
      "type": "function"
    },
    {
      "inputs": [
        {
          "internalType": "address",
          "name": "_transport",
          "type": "address"
        }
      ],
      "name": "transportation",
      "outputs": [],
      "stateMutability": "nonpayable",
      "type": "function"
    },
    {
      "inputs": [],
      "name": "withdraw",
      "outputs": [],
      "stateMutability": "nonpayable",
      "type": "function"
    }
  ],
  "bytecode": "0x60806040523480156200001157600080fd5b50604051620026b2380380620026b2833981810160405281019062000037919062000129565b336000806101000a81548173ffffffffffffffffffffffffffffffffffffffff021916908373ffffffffffffffffffffffffffffffffffffffff16021790555080600160006101000a81548173ffffffffffffffffffffffffffffffffffffffff021916908373ffffffffffffffffffffffffffffffffffffffff160217905550506200015b565b600080fd5b600073ffffffffffffffffffffffffffffffffffffffff82169050919050565b6000620000f182620000c4565b9050919050565b6200010381620000e4565b81146200010f57600080fd5b50565b6000815190506200012381620000f8565b92915050565b600060208284031215620001425762000141620000bf565b5b6000620001528482850162000112565b91505092915050565b612547806200016b6000396000f3fe60806040526004361061012a5760003560e01c8063603daf9a116100ab5780639954882c1161006f5780639954882c14610373578063c19d93fb1461039e578063c290d691146103c9578063c29b2f20146103e5578063c89f2ce414610410578063dbd0e1b61461043b5761012a565b8063603daf9a146102af5780637150d8ae146102da578063780bd3f11461030557806383a6deb5146103455780639926223c1461035c5761012a565b80633420924a116100f25780633420924a146102045780633ccfd60b1461022f57806351105d3314610246578063590e1ae31461026f5780635c19a95c146102865761012a565b806304ac1db71461012f57806308551a531461015a5780631865c57d146101855780632cf87b13146101b05780632f7bd389146101db575b600080fd5b34801561013b57600080fd5b50610144610466565b6040516101519190611742565b60405180910390f35b34801561016657600080fd5b5061016f61046c565b60405161017c919061179e565b60405180910390f35b34801561019157600080fd5b5061019a610490565b6040516101a79190611830565b60405180910390f35b3480156101bc57600080fd5b506101c56104a7565b6040516101d2919061179e565b60405180910390f35b3480156101e757600080fd5b5061020260048036038101906101fd91906119d1565b6104cd565b005b34801561021057600080fd5b5061021961064f565b604051610226919061179e565b60405180910390f35b34801561023b57600080fd5b50610244610679565b005b34801561025257600080fd5b5061026d60048036038101906102689190611a9c565b6107c1565b005b34801561027b57600080fd5b506102846109c5565b005b34801561029257600080fd5b506102ad60048036038101906102a89190611a9c565b610bd8565b005b3480156102bb57600080fd5b506102c4610d3d565b6040516102d1919061179e565b60405180910390f35b3480156102e657600080fd5b506102ef610d67565b6040516102fc9190611aea565b60405180910390f35b34801561031157600080fd5b5061032c60048036038101906103279190611b05565b610d8d565b60405161033c9493929190611bba565b60405180910390f35b34801561035157600080fd5b5061035a610edd565b005b34801561036857600080fd5b50610371610fe8565b005b34801561037f57600080fd5b5061038861129c565b6040516103959190611742565b60405180910390f35b3480156103aa57600080fd5b506103b36112a2565b6040516103c09190611830565b60405180910390f35b6103e360048036038101906103de9190611b05565b6112b5565b005b3480156103f157600080fd5b506103fa61142a565b6040516104079190611d92565b60405180910390f35b34801561041c57600080fd5b506104256115c1565b6040516104329190611742565b60405180910390f35b34801561044757600080fd5b506104506115c7565b60405161045d919061179e565b60405180910390f35b60065481565b60008054906101000a900473ffffffffffffffffffffffffffffffffffffffff1681565b6000600760009054906101000a900460ff16905090565b600260009054906101000a900473ffffffffffffffffffffffffffffffffffffffff1681565b600160009054906101000a900473ffffffffffffffffffffffffffffffffffffffff1673ffffffffffffffffffffffffffffffffffffffff163373ffffffffffffffffffffffffffffffffffffffff161461055d576040517f08c379a000000000000000000000000000000000000000000000000000000000815260040161055490611e26565b60405180910390fd5b60006040518060800160405280868152602001858152602001848152602001838152509050600381908060018154018082558091505060019003906000526020600020906004020160009091909190915060008201518160000190805190602001906105ca929190611686565b5060208201518160010190805190602001906105e7929190611686565b50604082015181600201556060820151816003015550508060405161060c9190611f1c565b60405180910390207f53205550e89634ecef8d267ad2bca651ec10907539c31b4ebd324d33e0f2441560405160405180910390a26106486115f0565b5050505050565b6000600260009054906101000a900473ffffffffffffffffffffffffffffffffffffffff16905090565b600160009054906101000a900473ffffffffffffffffffffffffffffffffffffffff1673ffffffffffffffffffffffffffffffffffffffff163373ffffffffffffffffffffffffffffffffffffffff1614610709576040517f08c379a000000000000000000000000000000000000000000000000000000000815260040161070090611e26565b60405180910390fd5b60006006541161074e576040517f08c379a000000000000000000000000000000000000000000000000000000000815260040161074590611f7f565b60405180910390fd5b6000600681905550600160009054906101000a900473ffffffffffffffffffffffffffffffffffffffff1673ffffffffffffffffffffffffffffffffffffffff166108fc479081150290604051600060405180830381858888f193505050501580156107be573d6000803e3d6000fd5b50565b60008054906101000a900473ffffffffffffffffffffffffffffffffffffffff1673ffffffffffffffffffffffffffffffffffffffff163373ffffffffffffffffffffffffffffffffffffffff161461084f576040517f08c379a000000000000000000000000000000000000000000000000000000000815260040161084690612011565b60405180910390fd5b60016005811115610863576108626117b9565b5b600760009054906101000a900460ff166005811115610885576108846117b9565b5b146108c5576040517f08c379a00000000000000000000000000000000000000000000000000000000081526004016108bc9061207d565b60405180910390fd5b80600260006101000a81548173ffffffffffffffffffffffffffffffffffffffff021916908373ffffffffffffffffffffffffffffffffffffffff1602179055506002600760006101000a81548160ff0219169083600581111561092c5761092b6117b9565b5b0217905550600760009054906101000a900460ff166005811115610953576109526117b9565b5b7f268f1153844c3ed9f77b7cabc4fedb9d9994a5361b583f824ffbe523f3739e6560405160405180910390a28073ffffffffffffffffffffffffffffffffffffffff167f3ff4d08335c24b48079a25a3a3cb09d8c913631430f829ec6e529c70ca63008860405160405180910390a250565b600360058111156109d9576109d86117b9565b5b600760009054906101000a900460ff1660058111156109fb576109fa6117b9565b5b1415610a3c576040517f08c379a0000000000000000000000000000000000000000000000000000000008152600401610a33906120e9565b60405180910390fd5b600580811115610a4f57610a4e6117b9565b5b600760009054906101000a900460ff166005811115610a7157610a706117b9565b5b1415610ab2576040517f08c379a0000000000000000000000000000000000000000000000000000000008152600401610aa990612155565b60405180910390fd5b600060055411610af7576040517f08c379a0000000000000000000000000000000000000000000000000000000008152600401610aee906121c1565b60405180910390fd5b60008054906101000a900473ffffffffffffffffffffffffffffffffffffffff1673ffffffffffffffffffffffffffffffffffffffff163373ffffffffffffffffffffffffffffffffffffffff161415610b5d5760055460068190555060006005819055505b6003600760006101000a81548160ff02191690836005811115610b8357610b826117b9565b5b0217905550600760009054906101000a900460ff166005811115610baa57610ba96117b9565b5b7f268f1153844c3ed9f77b7cabc4fedb9d9994a5361b583f824ffbe523f3739e6560405160405180910390a2565b600260009054906101000a900473ffffffffffffffffffffffffffffffffffffffff1673ffffffffffffffffffffffffffffffffffffffff163373ffffffffffffffffffffffffffffffffffffffff1614610c68576040517f08c379a0000000000000000000000000000000000000000000000000000000008152600401610c5f9061222d565b60405180910390fd5b80600260006101000a81548173ffffffffffffffffffffffffffffffffffffffff021916908373ffffffffffffffffffffffffffffffffffffffff160217905550600760009054906101000a900460ff166005811115610ccb57610cca6117b9565b5b7f268f1153844c3ed9f77b7cabc4fedb9d9994a5361b583f824ffbe523f3739e6560405160405180910390a28073ffffffffffffffffffffffffffffffffffffffff167f3ff4d08335c24b48079a25a3a3cb09d8c913631430f829ec6e529c70ca63008860405160405180910390a250565b6000600160009054906101000a900473ffffffffffffffffffffffffffffffffffffffff16905090565b600160009054906101000a900473ffffffffffffffffffffffffffffffffffffffff1681565b60038181548110610d9d57600080fd5b9060005260206000209060040201600091509050806000018054610dc09061227c565b80601f0160208091040260200160405190810160405280929190818152602001828054610dec9061227c565b8015610e395780601f10610e0e57610100808354040283529160200191610e39565b820191906000526020600020905b815481529060010190602001808311610e1c57829003601f168201915b505050505090806001018054610e4e9061227c565b80601f0160208091040260200160405190810160405280929190818152602001828054610e7a9061227c565b8015610ec75780601f10610e9c57610100808354040283529160200191610ec7565b820191906000526020600020905b815481529060010190602001808311610eaa57829003601f168201915b5050505050908060020154908060030154905084565b600260009054906101000a900473ffffffffffffffffffffffffffffffffffffffff1673ffffffffffffffffffffffffffffffffffffffff163373ffffffffffffffffffffffffffffffffffffffff1614610f6d576040517f08c379a0000000000000000000000000000000000000000000000000000000008152600401610f649061222d565b60405180910390fd5b6004600760006101000a81548160ff02191690836005811115610f9357610f926117b9565b5b0217905550600760009054906101000a900460ff166005811115610fba57610fb96117b9565b5b7f268f1153844c3ed9f77b7cabc4fedb9d9994a5361b583f824ffbe523f3739e6560405160405180910390a2565b60008054906101000a900473ffffffffffffffffffffffffffffffffffffffff1673ffffffffffffffffffffffffffffffffffffffff163373ffffffffffffffffffffffffffffffffffffffff1614611076576040517f08c379a000000000000000000000000000000000000000000000000000000000815260040161106d90612011565b60405180910390fd5b6003600581111561108a576110896117b9565b5b600760009054906101000a900460ff1660058111156110ac576110ab6117b9565b5b14156110ed576040517f08c379a00000000000000000000000000000000000000000000000000000000081526004016110e4906120e9565b60405180910390fd5b600580811115611100576110ff6117b9565b5b600760009054906101000a900460ff166005811115611122576111216117b9565b5b1415611163576040517f08c379a000000000000000000000000000000000000000000000000000000000815260040161115a90612155565b60405180910390fd5b60046005811115611177576111766117b9565b5b600760009054906101000a900460ff166005811115611199576111986117b9565b5b146111a357600080fd5b6005600760006101000a81548160ff021916908360058111156111c9576111c86117b9565b5b0217905550600760009054906101000a900460ff1660058111156111f0576111ef6117b9565b5b7f268f1153844c3ed9f77b7cabc4fedb9d9994a5361b583f824ffbe523f3739e6560405160405180910390a260006005541161122b57600080fd5b600060058190555060008054906101000a900473ffffffffffffffffffffffffffffffffffffffff1673ffffffffffffffffffffffffffffffffffffffff166108fc479081150290604051600060405180830381858888f19350505050158015611299573d6000803e3d6000fd5b50565b60045481565b600760009054906101000a900460ff1681565b6000600454116112fa576040517f08c379a00000000000000000000000000000000000000000000000000000000081526004016112f1906122fa565b60405180910390fd5b6000600581111561130e5761130d6117b9565b5b600760009054906101000a900460ff1660058111156113305761132f6117b9565b5b14611370576040517f08c379a000000000000000000000000000000000000000000000000000000000815260040161136790612366565b60405180910390fd5b806005600082825461138291906123b5565b92505081905550806004600082825461139b919061240b565b9250508190555060006004541415611427576001600760006101000a81548160ff021916908360058111156113d3576113d26117b9565b5b0217905550600760009054906101000a900460ff1660058111156113fa576113f96117b9565b5b7f268f1153844c3ed9f77b7cabc4fedb9d9994a5361b583f824ffbe523f3739e6560405160405180910390a25b50565b60606003805480602002602001604051908101604052809291908181526020016000905b828210156115b857838290600052602060002090600402016040518060800160405290816000820180546114819061227c565b80601f01602080910402602001604051908101604052809291908181526020018280546114ad9061227c565b80156114fa5780601f106114cf576101008083540402835291602001916114fa565b820191906000526020600020905b8154815290600101906020018083116114dd57829003601f168201915b505050505081526020016001820180546115139061227c565b80601f016020809104026020016040519081016040528092919081815260200182805461153f9061227c565b801561158c5780601f106115615761010080835404028352916020019161158c565b820191906000526020600020905b81548152906001019060200180831161156f57829003601f168201915b50505050508152602001600282015481526020016003820154815250508152602001906001019061144e565b50505050905090565b60055481565b60008060009054906101000a900473ffffffffffffffffffffffffffffffffffffffff16905090565b600080600090505b60038054905081101561167b57600381815481106116195761161861243f565b5b9060005260206000209060040201600301546003828154811061163f5761163e61243f565b5b90600052602060002090600402016002015461165b919061246e565b8261166691906123b5565b91508080611673906124c8565b9150506115f8565b508060048190555050565b8280546116929061227c565b90600052602060002090601f0160209004810192826116b457600085556116fb565b82601f106116cd57805160ff19168380011785556116fb565b828001600101855582156116fb579182015b828111156116fa5782518255916020019190600101906116df565b5b509050611708919061170c565b5090565b5b8082111561172557600081600090555060010161170d565b5090565b6000819050919050565b61173c81611729565b82525050565b60006020820190506117576000830184611733565b92915050565b600073ffffffffffffffffffffffffffffffffffffffff82169050919050565b60006117888261175d565b9050919050565b6117988161177d565b82525050565b60006020820190506117b3600083018461178f565b92915050565b7f4e487b7100000000000000000000000000000000000000000000000000000000600052602160045260246000fd5b600681106117f9576117f86117b9565b5b50565b600081905061180a826117e8565b919050565b600061181a826117fc565b9050919050565b61182a8161180f565b82525050565b60006020820190506118456000830184611821565b92915050565b6000604051905090565b600080fd5b600080fd5b600080fd5b600080fd5b6000601f19601f8301169050919050565b7f4e487b7100000000000000000000000000000000000000000000000000000000600052604160045260246000fd5b6118b282611869565b810181811067ffffffffffffffff821117156118d1576118d061187a565b5b80604052505050565b60006118e461184b565b90506118f082826118a9565b919050565b600067ffffffffffffffff8211156119105761190f61187a565b5b61191982611869565b9050602081019050919050565b82818337600083830152505050565b6000611948611943846118f5565b6118da565b90508281526020810184848401111561196457611963611864565b5b61196f848285611926565b509392505050565b600082601f83011261198c5761198b61185f565b5b813561199c848260208601611935565b91505092915050565b6119ae81611729565b81146119b957600080fd5b50565b6000813590506119cb816119a5565b92915050565b600080600080608085870312156119eb576119ea611855565b5b600085013567ffffffffffffffff811115611a0957611a0861185a565b5b611a1587828801611977565b945050602085013567ffffffffffffffff811115611a3657611a3561185a565b5b611a4287828801611977565b9350506040611a53878288016119bc565b9250506060611a64878288016119bc565b91505092959194509250565b611a798161177d565b8114611a8457600080fd5b50565b600081359050611a9681611a70565b92915050565b600060208284031215611ab257611ab1611855565b5b6000611ac084828501611a87565b91505092915050565b6000611ad48261175d565b9050919050565b611ae481611ac9565b82525050565b6000602082019050611aff6000830184611adb565b92915050565b600060208284031215611b1b57611b1a611855565b5b6000611b29848285016119bc565b91505092915050565b600081519050919050565b600082825260208201905092915050565b60005b83811015611b6c578082015181840152602081019050611b51565b83811115611b7b576000848401525b50505050565b6000611b8c82611b32565b611b968185611b3d565b9350611ba6818560208601611b4e565b611baf81611869565b840191505092915050565b60006080820190508181036000830152611bd48187611b81565b90508181036020830152611be88186611b81565b9050611bf76040830185611733565b611c046060830184611733565b95945050505050565b600081519050919050565b600082825260208201905092915050565b6000819050602082019050919050565b600082825260208201905092915050565b6000611c5582611b32565b611c5f8185611c39565b9350611c6f818560208601611b4e565b611c7881611869565b840191505092915050565b611c8c81611729565b82525050565b60006080830160008301518482036000860152611caf8282611c4a565b91505060208301518482036020860152611cc98282611c4a565b9150506040830151611cde6040860182611c83565b506060830151611cf16060860182611c83565b508091505092915050565b6000611d088383611c92565b905092915050565b6000602082019050919050565b6000611d2882611c0d565b611d328185611c18565b935083602082028501611d4485611c29565b8060005b85811015611d805784840389528151611d618582611cfc565b9450611d6c83611d10565b925060208a01995050600181019050611d48565b50829750879550505050505092915050565b60006020820190508181036000830152611dac8184611d1d565b905092915050565b7f4f6e6c7920637573746f6d65722063616e2075736520746869732066756e637460008201527f696f6e2e00000000000000000000000000000000000000000000000000000000602082015250565b6000611e10602483611b3d565b9150611e1b82611db4565b604082019050919050565b60006020820190508181036000830152611e3f81611e03565b9050919050565b600081905092915050565b6000611e5c82611b32565b611e668185611e46565b9350611e76818560208601611b4e565b611e7f81611869565b840191505092915050565b6000611e968383611e51565b905092915050565b611ea781611729565b82525050565b6000611eb98383611e9e565b60208301905092915050565b60008083016000830151611ed98582611e8a565b9450506020830151611eeb8582611e8a565b9450506040830151611efd8582611ead565b9450506060830151611f0f8582611ead565b9450508391505092915050565b6000611f288284611ec5565b915081905092915050565b7f43616e6e6f742077697468647261770000000000000000000000000000000000600082015250565b6000611f69600f83611b3d565b9150611f7482611f33565b602082019050919050565b60006020820190508181036000830152611f9881611f5c565b9050919050565b7f4f6e6c79206465616c65722063616e2075736520746869732066756e6374696f60008201527f6e2e000000000000000000000000000000000000000000000000000000000000602082015250565b6000611ffb602283611b3d565b915061200682611f9f565b604082019050919050565b6000602082019050818103600083015261202a81611fee565b9050919050565b7f4e6f742070616964210000000000000000000000000000000000000000000000600082015250565b6000612067600983611b3d565b915061207282612031565b602082019050919050565b600060208201905081810360008301526120968161205a565b9050919050565b7f436865636b696e6720726566756e642100000000000000000000000000000000600082015250565b60006120d3601083611b3d565b91506120de8261209d565b602082019050919050565b60006020820190508181036000830152612102816120c6565b9050919050565b7f4e6f742063616c6c61626c652100000000000000000000000000000000000000600082015250565b600061213f600d83611b3d565b915061214a82612109565b602082019050919050565b6000602082019050818103600083015261216e81612132565b9050919050565b7f4e6f742063616c6c61626c650000000000000000000000000000000000000000600082015250565b60006121ab600c83611b3d565b91506121b682612175565b602082019050919050565b600060208201905081810360008301526121da8161219e565b9050919050565b7f4f6e6c7920766563746f722063616e2064656c65676174652e00000000000000600082015250565b6000612217601983611b3d565b9150612222826121e1565b602082019050919050565b600060208201905081810360008301526122468161220a565b9050919050565b7f4e487b7100000000000000000000000000000000000000000000000000000000600052602260045260246000fd5b6000600282049050600182168061229457607f821691505b602082108114156122a8576122a761224d565b5b50919050565b7f506c6561736520696e7365727420736f6d652070726f64756374210000000000600082015250565b60006122e4601b83611b3d565b91506122ef826122ae565b602082019050919050565b60006020820190508181036000830152612313816122d7565b9050919050565b7f416c726561647920706169642100000000000000000000000000000000000000600082015250565b6000612350600d83611b3d565b915061235b8261231a565b602082019050919050565b6000602082019050818103600083015261237f81612343565b9050919050565b7f4e487b7100000000000000000000000000000000000000000000000000000000600052601160045260246000fd5b60006123c082611729565b91506123cb83611729565b9250827fffffffffffffffffffffffffffffffffffffffffffffffffffffffffffffffff03821115612400576123ff612386565b5b828201905092915050565b600061241682611729565b915061242183611729565b92508282101561243457612433612386565b5b828203905092915050565b7f4e487b7100000000000000000000000000000000000000000000000000000000600052603260045260246000fd5b600061247982611729565b915061248483611729565b9250817fffffffffffffffffffffffffffffffffffffffffffffffffffffffffffffffff04831182151516156124bd576124bc612386565b5b828202905092915050565b60006124d382611729565b91507fffffffffffffffffffffffffffffffffffffffffffffffffffffffffffffffff82141561250657612505612386565b5b60018201905091905056fea2646970667358221220e7fb8b7bde96e9f74b7e8eb7e9ead62a5b098a79c0993375c8012b9fd16483bd64736f6c63430008090033",
  "linkReferences": {},
  "deployedLinkReferences": {}
}