{
  "_format": "hh-sol-artifact-1",
  "contractName": "logistic",
  "sourceName": "chain/contracts/logistic.sol",
  "abi": [
    {
      "inputs": [
        {
          "internalType": "address payable",
          "name": "_buyer",
          "type": "address"
        }
      ],
      "stateMutability": "nonpayable",
      "type": "constructor"
    },
    {
      "anonymous": false,
      "inputs": [],
      "name": "changeState",
      "type": "event"
    },
    {
      "anonymous": false,
      "inputs": [
        {
          "indexed": false,
          "internalType": "address",
          "name": "",
          "type": "address"
        }
      ],
      "name": "handover",
      "type": "event"
    },
    {
      "anonymous": false,
      "inputs": [],
      "name": "productAdd",
      "type": "event"
    },
    {
      "inputs": [],
      "name": "buyer",
      "outputs": [
        {
          "internalType": "address payable",
          "name": "",
          "type": "address"
        }
      ],
      "stateMutability": "view",
      "type": "function"
    },
    {
      "inputs": [],
      "name": "calculateTotal",
      "outputs": [],
      "stateMutability": "nonpayable",
      "type": "function"
    },
    {
      "inputs": [
        {
          "internalType": "address",
          "name": "_delegate",
          "type": "address"
        }
      ],
      "name": "delegate",
      "outputs": [],
      "stateMutability": "nonpayable",
      "type": "function"
    },
    {
      "inputs": [],
      "name": "funds",
      "outputs": [
        {
          "internalType": "uint256",
          "name": "",
          "type": "uint256"
        }
      ],
      "stateMutability": "view",
      "type": "function"
    },
    {
      "inputs": [],
      "name": "gain",
      "outputs": [],
      "stateMutability": "nonpayable",
      "type": "function"
    },
    {
      "inputs": [],
      "name": "getBuyer",
      "outputs": [
        {
          "internalType": "address",
          "name": "",
          "type": "address"
        }
      ],
      "stateMutability": "view",
      "type": "function"
    },
    {
      "inputs": [],
      "name": "getProducts",
      "outputs": [
        {
          "components": [
            {
              "internalType": "string",
              "name": "id",
              "type": "string"
            },
            {
              "internalType": "string",
              "name": "description",
              "type": "string"
            },
            {
              "internalType": "uint256",
              "name": "price",
              "type": "uint256"
            },
            {
              "internalType": "uint256",
              "name": "quantity",
              "type": "uint256"
            }
          ],
          "internalType": "struct logistic.Product[]",
          "name": "",
          "type": "tuple[]"
        }
      ],
      "stateMutability": "view",
      "type": "function"
    },
    {
      "inputs": [],
      "name": "getSeller",
      "outputs": [
        {
          "internalType": "address",
          "name": "",
          "type": "address"
        }
      ],
      "stateMutability": "view",
      "type": "function"
    },
    {
      "inputs": [],
      "name": "getState",
      "outputs": [
        {
          "internalType": "enum logistic.stateOfShipping",
          "name": "",
          "type": "uint8"
        }
      ],
      "stateMutability": "view",
      "type": "function"
    },
    {
      "inputs": [],
      "name": "getTransport",
      "outputs": [
        {
          "internalType": "address",
          "name": "",
          "type": "address"
        }
      ],
      "stateMutability": "view",
      "type": "function"
    },
    {
      "inputs": [
        {
          "internalType": "string",
          "name": "_id",
          "type": "string"
        },
        {
          "internalType": "string",
          "name": "_description",
          "type": "string"
        },
        {
          "internalType": "uint256",
          "name": "_price",
          "type": "uint256"
        },
        {
          "internalType": "uint256",
          "name": "_quantity",
          "type": "uint256"
        }
      ],
      "name": "insertProduct",
      "outputs": [],
      "stateMutability": "nonpayable",
      "type": "function"
    },
    {
      "inputs": [
        {
          "internalType": "uint256",
          "name": "_pay",
          "type": "uint256"
        }
      ],
      "name": "pay",
      "outputs": [],
      "stateMutability": "payable",
      "type": "function"
    },
    {
      "inputs": [],
      "name": "pendingReturns",
      "outputs": [
        {
          "internalType": "uint256",
          "name": "",
          "type": "uint256"
        }
      ],
      "stateMutability": "view",
      "type": "function"
    },
    {
      "inputs": [
        {
          "internalType": "uint256",
          "name": "",
          "type": "uint256"
        }
      ],
      "name": "product",
      "outputs": [
        {
          "internalType": "string",
          "name": "id",
          "type": "string"
        },
        {
          "internalType": "string",
          "name": "description",
          "type": "string"
        },
        {
          "internalType": "uint256",
          "name": "price",
          "type": "uint256"
        },
        {
          "internalType": "uint256",
          "name": "quantity",
          "type": "uint256"
        }
      ],
      "stateMutability": "view",
      "type": "function"
    },
    {
      "inputs": [],
      "name": "received",
      "outputs": [],
      "stateMutability": "nonpayable",
      "type": "function"
    },
    {
      "inputs": [],
      "name": "refund",
      "outputs": [],
      "stateMutability": "nonpayable",
      "type": "function"
    },
    {
      "inputs": [],
      "name": "seller",
      "outputs": [
        {
          "internalType": "address",
          "name": "",
          "type": "address"
        }
      ],
      "stateMutability": "view",
      "type": "function"
    },
    {
      "inputs": [],
      "name": "state",
      "outputs": [
        {
          "internalType": "enum logistic.stateOfShipping",
          "name": "",
          "type": "uint8"
        }
      ],
      "stateMutability": "view",
      "type": "function"
    },
    {
      "inputs": [],
      "name": "toPay",
      "outputs": [
        {
          "internalType": "uint256",
          "name": "",
          "type": "uint256"
        }
      ],
      "stateMutability": "view",
      "type": "function"
    },
    {
      "inputs": [],
      "name": "total",
      "outputs": [
        {
          "internalType": "uint256",
          "name": "",
          "type": "uint256"
        }
      ],
      "stateMutability": "view",
      "type": "function"
    },
    {
      "inputs": [],
      "name": "transport",
      "outputs": [
        {
          "internalType": "address",
          "name": "",
          "type": "address"
        }
      ],
      "stateMutability": "view",
      "type": "function"
    },
    {
      "inputs": [
        {
          "internalType": "address",
          "name": "_transport",
          "type": "address"
        }
      ],
      "name": "transportation",
      "outputs": [],
      "stateMutability": "nonpayable",
      "type": "function"
    },
    {
      "inputs": [],
      "name": "withdraw",
      "outputs": [],
      "stateMutability": "nonpayable",
      "type": "function"
    }
  ],
  "bytecode": "0x60806040523480156200001157600080fd5b506040516200253838038062002538833981810160405281019062000037919062000131565b336000806101000a81548173ffffffffffffffffffffffffffffffffffffffff021916908373ffffffffffffffffffffffffffffffffffffffff16021790555080600160006101000a81548173ffffffffffffffffffffffffffffffffffffffff021916908373ffffffffffffffffffffffffffffffffffffffff16021790555060006004819055505062000163565b600080fd5b600073ffffffffffffffffffffffffffffffffffffffff82169050919050565b6000620000f982620000cc565b9050919050565b6200010b81620000ec565b81146200011757600080fd5b50565b6000815190506200012b8162000100565b92915050565b6000602082840312156200014a5762000149620000c7565b5b60006200015a848285016200011a565b91505092915050565b6123c580620001736000396000f3fe6080604052600436106101405760003560e01c8063603daf9a116100b6578063c19d93fb1161006f578063c19d93fb146103df578063c290d6911461040a578063c29b2f2014610426578063c89f2ce414610451578063dbd0e1b61461047c578063e2f3d4b5146104a757610140565b8063603daf9a146102f05780637150d8ae1461031b578063780bd3f11461034657806383a6deb5146103865780639926223c1461039d5780639954882c146103b457610140565b80632f7bd389116101085780632f7bd3891461021c5780633420924a146102455780633ccfd60b1461027057806351105d3314610287578063590e1ae3146102b05780635c19a95c146102c757610140565b806304ac1db71461014557806308551a53146101705780631865c57d1461019b5780632cf87b13146101c65780632ddbd13a146101f1575b600080fd5b34801561015157600080fd5b5061015a6104be565b60405161016791906116ad565b60405180910390f35b34801561017c57600080fd5b506101856104c4565b6040516101929190611709565b60405180910390f35b3480156101a757600080fd5b506101b06104e8565b6040516101bd919061179b565b60405180910390f35b3480156101d257600080fd5b506101db6104ff565b6040516101e89190611709565b60405180910390f35b3480156101fd57600080fd5b50610206610525565b60405161021391906116ad565b60405180910390f35b34801561022857600080fd5b50610243600480360381019061023e919061193c565b61052b565b005b34801561025157600080fd5b5061025a610697565b6040516102679190611709565b60405180910390f35b34801561027c57600080fd5b506102856106c1565b005b34801561029357600080fd5b506102ae60048036038101906102a99190611a07565b610809565b005b3480156102bc57600080fd5b506102c56109df565b005b3480156102d357600080fd5b506102ee60048036038101906102e99190611a07565b610bd0565b005b3480156102fc57600080fd5b50610305610d07565b6040516103129190611709565b60405180910390f35b34801561032757600080fd5b50610330610d31565b60405161033d9190611a55565b60405180910390f35b34801561035257600080fd5b5061036d60048036038101906103689190611a70565b610d57565b60405161037d9493929190611b25565b60405180910390f35b34801561039257600080fd5b5061039b610ea7565b005b3480156103a957600080fd5b506103b2610f90565b005b3480156103c057600080fd5b506103c9611222565b6040516103d691906116ad565b60405180910390f35b3480156103eb57600080fd5b506103f4611228565b604051610401919061179b565b60405180910390f35b610424600480360381019061041f9190611a70565b61123b565b005b34801561043257600080fd5b5061043b61138e565b6040516104489190611cfd565b60405180910390f35b34801561045d57600080fd5b50610466611525565b60405161047391906116ad565b60405180910390f35b34801561048857600080fd5b5061049161152b565b60405161049e9190611709565b60405180910390f35b3480156104b357600080fd5b506104bc611554565b005b60075481565b60008054906101000a900473ffffffffffffffffffffffffffffffffffffffff1681565b6000600860009054906101000a900460ff16905090565b600260009054906101000a900473ffffffffffffffffffffffffffffffffffffffff1681565b60045481565b600160009054906101000a900473ffffffffffffffffffffffffffffffffffffffff1673ffffffffffffffffffffffffffffffffffffffff163373ffffffffffffffffffffffffffffffffffffffff16146105bb576040517f08c379a00000000000000000000000000000000000000000000000000000000081526004016105b290611d91565b60405180910390fd5b60006040518060800160405280868152602001858152602001848152602001838152509050600381908060018154018082558091505060019003906000526020600020906004020160009091909190915060008201518160000190805190602001906106289291906115f1565b5060208201518160010190805190602001906106459291906115f1565b50604082015181600201556060820151816003015550507fb32f9903bf939c1272bad11414499aebac14dca0ab9e5192f1c1a19f25c671fb60405160405180910390a1610690611554565b5050505050565b6000600260009054906101000a900473ffffffffffffffffffffffffffffffffffffffff16905090565b600160009054906101000a900473ffffffffffffffffffffffffffffffffffffffff1673ffffffffffffffffffffffffffffffffffffffff163373ffffffffffffffffffffffffffffffffffffffff1614610751576040517f08c379a000000000000000000000000000000000000000000000000000000000815260040161074890611d91565b60405180910390fd5b600060075411610796576040517f08c379a000000000000000000000000000000000000000000000000000000000815260040161078d90611dfd565b60405180910390fd5b6000600781905550600160009054906101000a900473ffffffffffffffffffffffffffffffffffffffff1673ffffffffffffffffffffffffffffffffffffffff166108fc479081150290604051600060405180830381858888f19350505050158015610806573d6000803e3d6000fd5b50565b60008054906101000a900473ffffffffffffffffffffffffffffffffffffffff1673ffffffffffffffffffffffffffffffffffffffff163373ffffffffffffffffffffffffffffffffffffffff1614610897576040517f08c379a000000000000000000000000000000000000000000000000000000000815260040161088e90611e8f565b60405180910390fd5b600160058111156108ab576108aa611724565b5b600860009054906101000a900460ff1660058111156108cd576108cc611724565b5b1461090d576040517f08c379a000000000000000000000000000000000000000000000000000000000815260040161090490611efb565b60405180910390fd5b80600260006101000a81548173ffffffffffffffffffffffffffffffffffffffff021916908373ffffffffffffffffffffffffffffffffffffffff1602179055506002600860006101000a81548160ff0219169083600581111561097457610973611724565b5b02179055507f8412e667bf787a533dc887f34a153d6689a41e1ffe6709ae6d9153dc9586202360405160405180910390a17f3ff4d08335c24b48079a25a3a3cb09d8c913631430f829ec6e529c70ca630088816040516109d49190611709565b60405180910390a150565b600360058111156109f3576109f2611724565b5b600860009054906101000a900460ff166005811115610a1557610a14611724565b5b1415610a56576040517f08c379a0000000000000000000000000000000000000000000000000000000008152600401610a4d90611f67565b60405180910390fd5b600580811115610a6957610a68611724565b5b600860009054906101000a900460ff166005811115610a8b57610a8a611724565b5b1415610acc576040517f08c379a0000000000000000000000000000000000000000000000000000000008152600401610ac390611fd3565b60405180910390fd5b600060065411610b11576040517f08c379a0000000000000000000000000000000000000000000000000000000008152600401610b089061203f565b60405180910390fd5b60008054906101000a900473ffffffffffffffffffffffffffffffffffffffff1673ffffffffffffffffffffffffffffffffffffffff163373ffffffffffffffffffffffffffffffffffffffff161415610b775760065460078190555060006006819055505b6003600860006101000a81548160ff02191690836005811115610b9d57610b9c611724565b5b02179055507f8412e667bf787a533dc887f34a153d6689a41e1ffe6709ae6d9153dc9586202360405160405180910390a1565b600260009054906101000a900473ffffffffffffffffffffffffffffffffffffffff1673ffffffffffffffffffffffffffffffffffffffff163373ffffffffffffffffffffffffffffffffffffffff1614610c60576040517f08c379a0000000000000000000000000000000000000000000000000000000008152600401610c57906120ab565b60405180910390fd5b80600260006101000a81548173ffffffffffffffffffffffffffffffffffffffff021916908373ffffffffffffffffffffffffffffffffffffffff1602179055507f8412e667bf787a533dc887f34a153d6689a41e1ffe6709ae6d9153dc9586202360405160405180910390a17f3ff4d08335c24b48079a25a3a3cb09d8c913631430f829ec6e529c70ca63008881604051610cfc9190611709565b60405180910390a150565b6000600160009054906101000a900473ffffffffffffffffffffffffffffffffffffffff16905090565b600160009054906101000a900473ffffffffffffffffffffffffffffffffffffffff1681565b60038181548110610d6757600080fd5b9060005260206000209060040201600091509050806000018054610d8a906120fa565b80601f0160208091040260200160405190810160405280929190818152602001828054610db6906120fa565b8015610e035780601f10610dd857610100808354040283529160200191610e03565b820191906000526020600020905b815481529060010190602001808311610de657829003601f168201915b505050505090806001018054610e18906120fa565b80601f0160208091040260200160405190810160405280929190818152602001828054610e44906120fa565b8015610e915780601f10610e6657610100808354040283529160200191610e91565b820191906000526020600020905b815481529060010190602001808311610e7457829003601f168201915b5050505050908060020154908060030154905084565b600260009054906101000a900473ffffffffffffffffffffffffffffffffffffffff1673ffffffffffffffffffffffffffffffffffffffff163373ffffffffffffffffffffffffffffffffffffffff1614610f37576040517f08c379a0000000000000000000000000000000000000000000000000000000008152600401610f2e906120ab565b60405180910390fd5b6004600860006101000a81548160ff02191690836005811115610f5d57610f5c611724565b5b02179055507f8412e667bf787a533dc887f34a153d6689a41e1ffe6709ae6d9153dc9586202360405160405180910390a1565b60008054906101000a900473ffffffffffffffffffffffffffffffffffffffff1673ffffffffffffffffffffffffffffffffffffffff163373ffffffffffffffffffffffffffffffffffffffff161461101e576040517f08c379a000000000000000000000000000000000000000000000000000000000815260040161101590611e8f565b60405180910390fd5b6003600581111561103257611031611724565b5b600860009054906101000a900460ff16600581111561105457611053611724565b5b1415611095576040517f08c379a000000000000000000000000000000000000000000000000000000000815260040161108c90611f67565b60405180910390fd5b6005808111156110a8576110a7611724565b5b600860009054906101000a900460ff1660058111156110ca576110c9611724565b5b141561110b576040517f08c379a000000000000000000000000000000000000000000000000000000000815260040161110290611fd3565b60405180910390fd5b6004600581111561111f5761111e611724565b5b600860009054906101000a900460ff16600581111561114157611140611724565b5b1461114b57600080fd5b6005600860006101000a81548160ff0219169083600581111561117157611170611724565b5b02179055507f8412e667bf787a533dc887f34a153d6689a41e1ffe6709ae6d9153dc9586202360405160405180910390a16000600654116111b157600080fd5b600060068190555060008054906101000a900473ffffffffffffffffffffffffffffffffffffffff1673ffffffffffffffffffffffffffffffffffffffff166108fc479081150290604051600060405180830381858888f1935050505015801561121f573d6000803e3d6000fd5b50565b60055481565b600860009054906101000a900460ff1681565b600060045411611280576040517f08c379a000000000000000000000000000000000000000000000000000000000815260040161127790612178565b60405180910390fd5b6000600581111561129457611293611724565b5b600860009054906101000a900460ff1660058111156112b6576112b5611724565b5b146112f6576040517f08c379a00000000000000000000000000000000000000000000000000000000081526004016112ed906121e4565b60405180910390fd5b80600660008282546113089190612233565b9250508190555080600560008282546113219190612289565b925050819055506000600554141561138b576001600860006101000a81548160ff0219169083600581111561135957611358611724565b5b02179055507f8412e667bf787a533dc887f34a153d6689a41e1ffe6709ae6d9153dc9586202360405160405180910390a15b50565b60606003805480602002602001604051908101604052809291908181526020016000905b8282101561151c57838290600052602060002090600402016040518060800160405290816000820180546113e5906120fa565b80601f0160208091040260200160405190810160405280929190818152602001828054611411906120fa565b801561145e5780601f106114335761010080835404028352916020019161145e565b820191906000526020600020905b81548152906001019060200180831161144157829003601f168201915b50505050508152602001600182018054611477906120fa565b80601f01602080910402602001604051908101604052809291908181526020018280546114a3906120fa565b80156114f05780601f106114c5576101008083540402835291602001916114f0565b820191906000526020600020905b8154815290600101906020018083116114d357829003601f168201915b5050505050815260200160028201548152602001600382015481525050815260200190600101906113b2565b50505050905090565b60065481565b60008060009054906101000a900473ffffffffffffffffffffffffffffffffffffffff16905090565b60005b6003805490508110156115e55760038181548110611578576115776122bd565b5b9060005260206000209060040201600301546003828154811061159e5761159d6122bd565b5b9060005260206000209060040201600201546115ba91906122ec565b600460008282546115cb9190612233565b9250508190555080806115dd90612346565b915050611557565b50600454600581905550565b8280546115fd906120fa565b90600052602060002090601f01602090048101928261161f5760008555611666565b82601f1061163857805160ff1916838001178555611666565b82800160010185558215611666579182015b8281111561166557825182559160200191906001019061164a565b5b5090506116739190611677565b5090565b5b80821115611690576000816000905550600101611678565b5090565b6000819050919050565b6116a781611694565b82525050565b60006020820190506116c2600083018461169e565b92915050565b600073ffffffffffffffffffffffffffffffffffffffff82169050919050565b60006116f3826116c8565b9050919050565b611703816116e8565b82525050565b600060208201905061171e60008301846116fa565b92915050565b7f4e487b7100000000000000000000000000000000000000000000000000000000600052602160045260246000fd5b6006811061176457611763611724565b5b50565b600081905061177582611753565b919050565b600061178582611767565b9050919050565b6117958161177a565b82525050565b60006020820190506117b0600083018461178c565b92915050565b6000604051905090565b600080fd5b600080fd5b600080fd5b600080fd5b6000601f19601f8301169050919050565b7f4e487b7100000000000000000000000000000000000000000000000000000000600052604160045260246000fd5b61181d826117d4565b810181811067ffffffffffffffff8211171561183c5761183b6117e5565b5b80604052505050565b600061184f6117b6565b905061185b8282611814565b919050565b600067ffffffffffffffff82111561187b5761187a6117e5565b5b611884826117d4565b9050602081019050919050565b82818337600083830152505050565b60006118b36118ae84611860565b611845565b9050828152602081018484840111156118cf576118ce6117cf565b5b6118da848285611891565b509392505050565b600082601f8301126118f7576118f66117ca565b5b81356119078482602086016118a0565b91505092915050565b61191981611694565b811461192457600080fd5b50565b60008135905061193681611910565b92915050565b60008060008060808587031215611956576119556117c0565b5b600085013567ffffffffffffffff811115611974576119736117c5565b5b611980878288016118e2565b945050602085013567ffffffffffffffff8111156119a1576119a06117c5565b5b6119ad878288016118e2565b93505060406119be87828801611927565b92505060606119cf87828801611927565b91505092959194509250565b6119e4816116e8565b81146119ef57600080fd5b50565b600081359050611a01816119db565b92915050565b600060208284031215611a1d57611a1c6117c0565b5b6000611a2b848285016119f2565b91505092915050565b6000611a3f826116c8565b9050919050565b611a4f81611a34565b82525050565b6000602082019050611a6a6000830184611a46565b92915050565b600060208284031215611a8657611a856117c0565b5b6000611a9484828501611927565b91505092915050565b600081519050919050565b600082825260208201905092915050565b60005b83811015611ad7578082015181840152602081019050611abc565b83811115611ae6576000848401525b50505050565b6000611af782611a9d565b611b018185611aa8565b9350611b11818560208601611ab9565b611b1a816117d4565b840191505092915050565b60006080820190508181036000830152611b3f8187611aec565b90508181036020830152611b538186611aec565b9050611b62604083018561169e565b611b6f606083018461169e565b95945050505050565b600081519050919050565b600082825260208201905092915050565b6000819050602082019050919050565b600082825260208201905092915050565b6000611bc082611a9d565b611bca8185611ba4565b9350611bda818560208601611ab9565b611be3816117d4565b840191505092915050565b611bf781611694565b82525050565b60006080830160008301518482036000860152611c1a8282611bb5565b91505060208301518482036020860152611c348282611bb5565b9150506040830151611c496040860182611bee565b506060830151611c5c6060860182611bee565b508091505092915050565b6000611c738383611bfd565b905092915050565b6000602082019050919050565b6000611c9382611b78565b611c9d8185611b83565b935083602082028501611caf85611b94565b8060005b85811015611ceb5784840389528151611ccc8582611c67565b9450611cd783611c7b565b925060208a01995050600181019050611cb3565b50829750879550505050505092915050565b60006020820190508181036000830152611d178184611c88565b905092915050565b7f4f6e6c7920637573746f6d65722063616e2075736520746869732066756e637460008201527f696f6e2e00000000000000000000000000000000000000000000000000000000602082015250565b6000611d7b602483611aa8565b9150611d8682611d1f565b604082019050919050565b60006020820190508181036000830152611daa81611d6e565b9050919050565b7f43616e6e6f742077697468647261770000000000000000000000000000000000600082015250565b6000611de7600f83611aa8565b9150611df282611db1565b602082019050919050565b60006020820190508181036000830152611e1681611dda565b9050919050565b7f4f6e6c79206465616c65722063616e2075736520746869732066756e6374696f60008201527f6e2e000000000000000000000000000000000000000000000000000000000000602082015250565b6000611e79602283611aa8565b9150611e8482611e1d565b604082019050919050565b60006020820190508181036000830152611ea881611e6c565b9050919050565b7f4e6f742070616964210000000000000000000000000000000000000000000000600082015250565b6000611ee5600983611aa8565b9150611ef082611eaf565b602082019050919050565b60006020820190508181036000830152611f1481611ed8565b9050919050565b7f436865636b696e6720726566756e642100000000000000000000000000000000600082015250565b6000611f51601083611aa8565b9150611f5c82611f1b565b602082019050919050565b60006020820190508181036000830152611f8081611f44565b9050919050565b7f4e6f742063616c6c61626c652100000000000000000000000000000000000000600082015250565b6000611fbd600d83611aa8565b9150611fc882611f87565b602082019050919050565b60006020820190508181036000830152611fec81611fb0565b9050919050565b7f4e6f742063616c6c61626c650000000000000000000000000000000000000000600082015250565b6000612029600c83611aa8565b915061203482611ff3565b602082019050919050565b600060208201905081810360008301526120588161201c565b9050919050565b7f4f6e6c7920766563746f722063616e2064656c65676174652e00000000000000600082015250565b6000612095601983611aa8565b91506120a08261205f565b602082019050919050565b600060208201905081810360008301526120c481612088565b9050919050565b7f4e487b7100000000000000000000000000000000000000000000000000000000600052602260045260246000fd5b6000600282049050600182168061211257607f821691505b60208210811415612126576121256120cb565b5b50919050565b7f506c6561736520696e7365727420736f6d652070726f64756374210000000000600082015250565b6000612162601b83611aa8565b915061216d8261212c565b602082019050919050565b6000602082019050818103600083015261219181612155565b9050919050565b7f416c726561647920706169642100000000000000000000000000000000000000600082015250565b60006121ce600d83611aa8565b91506121d982612198565b602082019050919050565b600060208201905081810360008301526121fd816121c1565b9050919050565b7f4e487b7100000000000000000000000000000000000000000000000000000000600052601160045260246000fd5b600061223e82611694565b915061224983611694565b9250827fffffffffffffffffffffffffffffffffffffffffffffffffffffffffffffffff0382111561227e5761227d612204565b5b828201905092915050565b600061229482611694565b915061229f83611694565b9250828210156122b2576122b1612204565b5b828203905092915050565b7f4e487b7100000000000000000000000000000000000000000000000000000000600052603260045260246000fd5b60006122f782611694565b915061230283611694565b9250817fffffffffffffffffffffffffffffffffffffffffffffffffffffffffffffffff048311821515161561233b5761233a612204565b5b828202905092915050565b600061235182611694565b91507fffffffffffffffffffffffffffffffffffffffffffffffffffffffffffffffff82141561238457612383612204565b5b60018201905091905056fea2646970667358221220661eb47b5595d1d9fcb92f532b9d45bd46e94ec9ca94f6f5041d35f4590ca00b64736f6c63430008090033",
  "linkReferences": {},
  "deployedLinkReferences": {}
}