{
  "_format": "hh-sol-artifact-1",
  "contractName": "logistic",
  "sourceName": "chain/contracts/logistic.sol",
  "abi": [
    {
      "inputs": [
        {
          "internalType": "address payable",
          "name": "_buyer",
          "type": "address"
        }
      ],
      "stateMutability": "nonpayable",
      "type": "constructor"
    },
    {
      "anonymous": false,
      "inputs": [],
      "name": "changeState",
      "type": "event"
    },
    {
      "anonymous": false,
      "inputs": [
        {
          "indexed": false,
          "internalType": "address",
          "name": "",
          "type": "address"
        }
      ],
      "name": "handover",
      "type": "event"
    },
    {
      "anonymous": false,
      "inputs": [],
      "name": "productAdd",
      "type": "event"
    },
    {
      "inputs": [],
      "name": "buyer",
      "outputs": [
        {
          "internalType": "address payable",
          "name": "",
          "type": "address"
        }
      ],
      "stateMutability": "view",
      "type": "function"
    },
    {
      "inputs": [],
      "name": "calculateTotal",
      "outputs": [],
      "stateMutability": "nonpayable",
      "type": "function"
    },
    {
      "inputs": [
        {
          "internalType": "address",
          "name": "_delegate",
          "type": "address"
        }
      ],
      "name": "delegate",
      "outputs": [],
      "stateMutability": "nonpayable",
      "type": "function"
    },
    {
      "inputs": [],
      "name": "funds",
      "outputs": [
        {
          "internalType": "uint256",
          "name": "",
          "type": "uint256"
        }
      ],
      "stateMutability": "view",
      "type": "function"
    },
    {
      "inputs": [],
      "name": "gain",
      "outputs": [],
      "stateMutability": "nonpayable",
      "type": "function"
    },
    {
      "inputs": [],
      "name": "getBuyer",
      "outputs": [
        {
          "internalType": "address",
          "name": "",
          "type": "address"
        }
      ],
      "stateMutability": "view",
      "type": "function"
    },
    {
      "inputs": [],
      "name": "getProducts",
      "outputs": [
        {
          "components": [
            {
              "internalType": "string",
              "name": "id",
              "type": "string"
            },
            {
              "internalType": "string",
              "name": "description",
              "type": "string"
            },
            {
              "internalType": "uint256",
              "name": "price",
              "type": "uint256"
            },
            {
              "internalType": "uint256",
              "name": "quantity",
              "type": "uint256"
            }
          ],
          "internalType": "struct logistic.Product[]",
          "name": "",
          "type": "tuple[]"
        }
      ],
      "stateMutability": "view",
      "type": "function"
    },
    {
      "inputs": [],
      "name": "getSeller",
      "outputs": [
        {
          "internalType": "address",
          "name": "",
          "type": "address"
        }
      ],
      "stateMutability": "view",
      "type": "function"
    },
    {
      "inputs": [],
      "name": "getState",
      "outputs": [
        {
          "internalType": "enum logistic.stateOfShipping",
          "name": "",
          "type": "uint8"
        }
      ],
      "stateMutability": "view",
      "type": "function"
    },
    {
      "inputs": [],
      "name": "getTransport",
      "outputs": [
        {
          "internalType": "address",
          "name": "",
          "type": "address"
        }
      ],
      "stateMutability": "view",
      "type": "function"
    },
    {
      "inputs": [
        {
          "internalType": "string",
          "name": "_id",
          "type": "string"
        },
        {
          "internalType": "string",
          "name": "_description",
          "type": "string"
        },
        {
          "internalType": "uint256",
          "name": "_price",
          "type": "uint256"
        },
        {
          "internalType": "uint256",
          "name": "_quantity",
          "type": "uint256"
        }
      ],
      "name": "insertProduct",
      "outputs": [],
      "stateMutability": "nonpayable",
      "type": "function"
    },
    {
      "inputs": [
        {
          "internalType": "uint256",
          "name": "_pay",
          "type": "uint256"
        }
      ],
      "name": "pay",
      "outputs": [],
      "stateMutability": "payable",
      "type": "function"
    },
    {
      "inputs": [],
      "name": "pendingReturns",
      "outputs": [
        {
          "internalType": "uint256",
          "name": "",
          "type": "uint256"
        }
      ],
      "stateMutability": "view",
      "type": "function"
    },
    {
      "inputs": [
        {
          "internalType": "uint256",
          "name": "",
          "type": "uint256"
        }
      ],
      "name": "product",
      "outputs": [
        {
          "internalType": "string",
          "name": "id",
          "type": "string"
        },
        {
          "internalType": "string",
          "name": "description",
          "type": "string"
        },
        {
          "internalType": "uint256",
          "name": "price",
          "type": "uint256"
        },
        {
          "internalType": "uint256",
          "name": "quantity",
          "type": "uint256"
        }
      ],
      "stateMutability": "view",
      "type": "function"
    },
    {
      "inputs": [],
      "name": "received",
      "outputs": [],
      "stateMutability": "nonpayable",
      "type": "function"
    },
    {
      "inputs": [],
      "name": "refund",
      "outputs": [],
      "stateMutability": "nonpayable",
      "type": "function"
    },
    {
      "inputs": [],
      "name": "seller",
      "outputs": [
        {
          "internalType": "address",
          "name": "",
          "type": "address"
        }
      ],
      "stateMutability": "view",
      "type": "function"
    },
    {
      "inputs": [],
      "name": "state",
      "outputs": [
        {
          "internalType": "enum logistic.stateOfShipping",
          "name": "",
          "type": "uint8"
        }
      ],
      "stateMutability": "view",
      "type": "function"
    },
    {
      "inputs": [],
      "name": "toPay",
      "outputs": [
        {
          "internalType": "uint256",
          "name": "",
          "type": "uint256"
        }
      ],
      "stateMutability": "view",
      "type": "function"
    },
    {
      "inputs": [],
      "name": "transport",
      "outputs": [
        {
          "internalType": "address",
          "name": "",
          "type": "address"
        }
      ],
      "stateMutability": "view",
      "type": "function"
    },
    {
      "inputs": [
        {
          "internalType": "address",
          "name": "_transport",
          "type": "address"
        }
      ],
      "name": "transportation",
      "outputs": [],
      "stateMutability": "nonpayable",
      "type": "function"
    },
    {
      "inputs": [],
      "name": "withdraw",
      "outputs": [],
      "stateMutability": "nonpayable",
      "type": "function"
    }
  ],
  "bytecode": "0x60806040523480156200001157600080fd5b50604051620024ed380380620024ed833981810160405281019062000037919062000129565b336000806101000a81548173ffffffffffffffffffffffffffffffffffffffff021916908373ffffffffffffffffffffffffffffffffffffffff16021790555080600160006101000a81548173ffffffffffffffffffffffffffffffffffffffff021916908373ffffffffffffffffffffffffffffffffffffffff160217905550506200015b565b600080fd5b600073ffffffffffffffffffffffffffffffffffffffff82169050919050565b6000620000f182620000c4565b9050919050565b6200010381620000e4565b81146200010f57600080fd5b50565b6000815190506200012381620000f8565b92915050565b600060208284031215620001425762000141620000bf565b5b6000620001528482850162000112565b91505092915050565b612382806200016b6000396000f3fe6080604052600436106101355760003560e01c80637150d8ae116100ab578063c19d93fb1161006f578063c19d93fb146103a9578063c290d691146103d4578063c29b2f20146103f0578063c89f2ce41461041b578063dbd0e1b614610446578063e2f3d4b51461047157610135565b80637150d8ae146102e5578063780bd3f11461031057806383a6deb5146103505780639926223c146103675780639954882c1461037e57610135565b80633420924a116100fd5780633420924a1461020f5780633ccfd60b1461023a57806351105d3314610251578063590e1ae31461027a5780635c19a95c14610291578063603daf9a146102ba57610135565b806304ac1db71461013a57806308551a53146101655780631865c57d146101905780632cf87b13146101bb5780632f7bd389146101e6575b600080fd5b34801561014657600080fd5b5061014f610488565b60405161015c919061166a565b60405180910390f35b34801561017157600080fd5b5061017a61048e565b60405161018791906116c6565b60405180910390f35b34801561019c57600080fd5b506101a56104b2565b6040516101b29190611758565b60405180910390f35b3480156101c757600080fd5b506101d06104c9565b6040516101dd91906116c6565b60405180910390f35b3480156101f257600080fd5b5061020d600480360381019061020891906118f9565b6104ef565b005b34801561021b57600080fd5b5061022461065b565b60405161023191906116c6565b60405180910390f35b34801561024657600080fd5b5061024f610685565b005b34801561025d57600080fd5b50610278600480360381019061027391906119c4565b6107cd565b005b34801561028657600080fd5b5061028f6109a3565b005b34801561029d57600080fd5b506102b860048036038101906102b391906119c4565b610b94565b005b3480156102c657600080fd5b506102cf610ccb565b6040516102dc91906116c6565b60405180910390f35b3480156102f157600080fd5b506102fa610cf5565b6040516103079190611a12565b60405180910390f35b34801561031c57600080fd5b5061033760048036038101906103329190611a2d565b610d1b565b6040516103479493929190611ae2565b60405180910390f35b34801561035c57600080fd5b50610365610e6b565b005b34801561037357600080fd5b5061037c610f54565b005b34801561038a57600080fd5b506103936111e6565b6040516103a0919061166a565b60405180910390f35b3480156103b557600080fd5b506103be6111ec565b6040516103cb9190611758565b60405180910390f35b6103ee60048036038101906103e99190611a2d565b6111ff565b005b3480156103fc57600080fd5b50610405611352565b6040516104129190611cba565b60405180910390f35b34801561042757600080fd5b506104306114e9565b60405161043d919061166a565b60405180910390f35b34801561045257600080fd5b5061045b6114ef565b60405161046891906116c6565b60405180910390f35b34801561047d57600080fd5b50610486611518565b005b60065481565b60008054906101000a900473ffffffffffffffffffffffffffffffffffffffff1681565b6000600760009054906101000a900460ff16905090565b600260009054906101000a900473ffffffffffffffffffffffffffffffffffffffff1681565b600160009054906101000a900473ffffffffffffffffffffffffffffffffffffffff1673ffffffffffffffffffffffffffffffffffffffff163373ffffffffffffffffffffffffffffffffffffffff161461057f576040517f08c379a000000000000000000000000000000000000000000000000000000000815260040161057690611d4e565b60405180910390fd5b60006040518060800160405280868152602001858152602001848152602001838152509050600381908060018154018082558091505060019003906000526020600020906004020160009091909190915060008201518160000190805190602001906105ec9291906115ae565b5060208201518160010190805190602001906106099291906115ae565b50604082015181600201556060820151816003015550507fb32f9903bf939c1272bad11414499aebac14dca0ab9e5192f1c1a19f25c671fb60405160405180910390a1610654611518565b5050505050565b6000600260009054906101000a900473ffffffffffffffffffffffffffffffffffffffff16905090565b600160009054906101000a900473ffffffffffffffffffffffffffffffffffffffff1673ffffffffffffffffffffffffffffffffffffffff163373ffffffffffffffffffffffffffffffffffffffff1614610715576040517f08c379a000000000000000000000000000000000000000000000000000000000815260040161070c90611d4e565b60405180910390fd5b60006006541161075a576040517f08c379a000000000000000000000000000000000000000000000000000000000815260040161075190611dba565b60405180910390fd5b6000600681905550600160009054906101000a900473ffffffffffffffffffffffffffffffffffffffff1673ffffffffffffffffffffffffffffffffffffffff166108fc479081150290604051600060405180830381858888f193505050501580156107ca573d6000803e3d6000fd5b50565b60008054906101000a900473ffffffffffffffffffffffffffffffffffffffff1673ffffffffffffffffffffffffffffffffffffffff163373ffffffffffffffffffffffffffffffffffffffff161461085b576040517f08c379a000000000000000000000000000000000000000000000000000000000815260040161085290611e4c565b60405180910390fd5b6001600581111561086f5761086e6116e1565b5b600760009054906101000a900460ff166005811115610891576108906116e1565b5b146108d1576040517f08c379a00000000000000000000000000000000000000000000000000000000081526004016108c890611eb8565b60405180910390fd5b80600260006101000a81548173ffffffffffffffffffffffffffffffffffffffff021916908373ffffffffffffffffffffffffffffffffffffffff1602179055506002600760006101000a81548160ff02191690836005811115610938576109376116e1565b5b02179055507f8412e667bf787a533dc887f34a153d6689a41e1ffe6709ae6d9153dc9586202360405160405180910390a17f3ff4d08335c24b48079a25a3a3cb09d8c913631430f829ec6e529c70ca6300888160405161099891906116c6565b60405180910390a150565b600360058111156109b7576109b66116e1565b5b600760009054906101000a900460ff1660058111156109d9576109d86116e1565b5b1415610a1a576040517f08c379a0000000000000000000000000000000000000000000000000000000008152600401610a1190611f24565b60405180910390fd5b600580811115610a2d57610a2c6116e1565b5b600760009054906101000a900460ff166005811115610a4f57610a4e6116e1565b5b1415610a90576040517f08c379a0000000000000000000000000000000000000000000000000000000008152600401610a8790611f90565b60405180910390fd5b600060055411610ad5576040517f08c379a0000000000000000000000000000000000000000000000000000000008152600401610acc90611ffc565b60405180910390fd5b60008054906101000a900473ffffffffffffffffffffffffffffffffffffffff1673ffffffffffffffffffffffffffffffffffffffff163373ffffffffffffffffffffffffffffffffffffffff161415610b3b5760055460068190555060006005819055505b6003600760006101000a81548160ff02191690836005811115610b6157610b606116e1565b5b02179055507f8412e667bf787a533dc887f34a153d6689a41e1ffe6709ae6d9153dc9586202360405160405180910390a1565b600260009054906101000a900473ffffffffffffffffffffffffffffffffffffffff1673ffffffffffffffffffffffffffffffffffffffff163373ffffffffffffffffffffffffffffffffffffffff1614610c24576040517f08c379a0000000000000000000000000000000000000000000000000000000008152600401610c1b90612068565b60405180910390fd5b80600260006101000a81548173ffffffffffffffffffffffffffffffffffffffff021916908373ffffffffffffffffffffffffffffffffffffffff1602179055507f8412e667bf787a533dc887f34a153d6689a41e1ffe6709ae6d9153dc9586202360405160405180910390a17f3ff4d08335c24b48079a25a3a3cb09d8c913631430f829ec6e529c70ca63008881604051610cc091906116c6565b60405180910390a150565b6000600160009054906101000a900473ffffffffffffffffffffffffffffffffffffffff16905090565b600160009054906101000a900473ffffffffffffffffffffffffffffffffffffffff1681565b60038181548110610d2b57600080fd5b9060005260206000209060040201600091509050806000018054610d4e906120b7565b80601f0160208091040260200160405190810160405280929190818152602001828054610d7a906120b7565b8015610dc75780601f10610d9c57610100808354040283529160200191610dc7565b820191906000526020600020905b815481529060010190602001808311610daa57829003601f168201915b505050505090806001018054610ddc906120b7565b80601f0160208091040260200160405190810160405280929190818152602001828054610e08906120b7565b8015610e555780601f10610e2a57610100808354040283529160200191610e55565b820191906000526020600020905b815481529060010190602001808311610e3857829003601f168201915b5050505050908060020154908060030154905084565b600260009054906101000a900473ffffffffffffffffffffffffffffffffffffffff1673ffffffffffffffffffffffffffffffffffffffff163373ffffffffffffffffffffffffffffffffffffffff1614610efb576040517f08c379a0000000000000000000000000000000000000000000000000000000008152600401610ef290612068565b60405180910390fd5b6004600760006101000a81548160ff02191690836005811115610f2157610f206116e1565b5b02179055507f8412e667bf787a533dc887f34a153d6689a41e1ffe6709ae6d9153dc9586202360405160405180910390a1565b60008054906101000a900473ffffffffffffffffffffffffffffffffffffffff1673ffffffffffffffffffffffffffffffffffffffff163373ffffffffffffffffffffffffffffffffffffffff1614610fe2576040517f08c379a0000000000000000000000000000000000000000000000000000000008152600401610fd990611e4c565b60405180910390fd5b60036005811115610ff657610ff56116e1565b5b600760009054906101000a900460ff166005811115611018576110176116e1565b5b1415611059576040517f08c379a000000000000000000000000000000000000000000000000000000000815260040161105090611f24565b60405180910390fd5b60058081111561106c5761106b6116e1565b5b600760009054906101000a900460ff16600581111561108e5761108d6116e1565b5b14156110cf576040517f08c379a00000000000000000000000000000000000000000000000000000000081526004016110c690611f90565b60405180910390fd5b600460058111156110e3576110e26116e1565b5b600760009054906101000a900460ff166005811115611105576111046116e1565b5b1461110f57600080fd5b6005600760006101000a81548160ff02191690836005811115611135576111346116e1565b5b02179055507f8412e667bf787a533dc887f34a153d6689a41e1ffe6709ae6d9153dc9586202360405160405180910390a160006005541161117557600080fd5b600060058190555060008054906101000a900473ffffffffffffffffffffffffffffffffffffffff1673ffffffffffffffffffffffffffffffffffffffff166108fc479081150290604051600060405180830381858888f193505050501580156111e3573d6000803e3d6000fd5b50565b60045481565b600760009054906101000a900460ff1681565b600060045411611244576040517f08c379a000000000000000000000000000000000000000000000000000000000815260040161123b90612135565b60405180910390fd5b60006005811115611258576112576116e1565b5b600760009054906101000a900460ff16600581111561127a576112796116e1565b5b146112ba576040517f08c379a00000000000000000000000000000000000000000000000000000000081526004016112b1906121a1565b60405180910390fd5b80600560008282546112cc91906121f0565b9250508190555080600460008282546112e59190612246565b925050819055506000600454141561134f576001600760006101000a81548160ff0219169083600581111561131d5761131c6116e1565b5b02179055507f8412e667bf787a533dc887f34a153d6689a41e1ffe6709ae6d9153dc9586202360405160405180910390a15b50565b60606003805480602002602001604051908101604052809291908181526020016000905b828210156114e057838290600052602060002090600402016040518060800160405290816000820180546113a9906120b7565b80601f01602080910402602001604051908101604052809291908181526020018280546113d5906120b7565b80156114225780601f106113f757610100808354040283529160200191611422565b820191906000526020600020905b81548152906001019060200180831161140557829003601f168201915b5050505050815260200160018201805461143b906120b7565b80601f0160208091040260200160405190810160405280929190818152602001828054611467906120b7565b80156114b45780601f10611489576101008083540402835291602001916114b4565b820191906000526020600020905b81548152906001019060200180831161149757829003601f168201915b505050505081526020016002820154815260200160038201548152505081526020019060010190611376565b50505050905090565b60055481565b60008060009054906101000a900473ffffffffffffffffffffffffffffffffffffffff16905090565b600080600090505b6003805490508110156115a357600381815481106115415761154061227a565b5b906000526020600020906004020160030154600382815481106115675761156661227a565b5b90600052602060002090600402016002015461158391906122a9565b8261158e91906121f0565b9150808061159b90612303565b915050611520565b508060048190555050565b8280546115ba906120b7565b90600052602060002090601f0160209004810192826115dc5760008555611623565b82601f106115f557805160ff1916838001178555611623565b82800160010185558215611623579182015b82811115611622578251825591602001919060010190611607565b5b5090506116309190611634565b5090565b5b8082111561164d576000816000905550600101611635565b5090565b6000819050919050565b61166481611651565b82525050565b600060208201905061167f600083018461165b565b92915050565b600073ffffffffffffffffffffffffffffffffffffffff82169050919050565b60006116b082611685565b9050919050565b6116c0816116a5565b82525050565b60006020820190506116db60008301846116b7565b92915050565b7f4e487b7100000000000000000000000000000000000000000000000000000000600052602160045260246000fd5b60068110611721576117206116e1565b5b50565b600081905061173282611710565b919050565b600061174282611724565b9050919050565b61175281611737565b82525050565b600060208201905061176d6000830184611749565b92915050565b6000604051905090565b600080fd5b600080fd5b600080fd5b600080fd5b6000601f19601f8301169050919050565b7f4e487b7100000000000000000000000000000000000000000000000000000000600052604160045260246000fd5b6117da82611791565b810181811067ffffffffffffffff821117156117f9576117f86117a2565b5b80604052505050565b600061180c611773565b905061181882826117d1565b919050565b600067ffffffffffffffff821115611838576118376117a2565b5b61184182611791565b9050602081019050919050565b82818337600083830152505050565b600061187061186b8461181d565b611802565b90508281526020810184848401111561188c5761188b61178c565b5b61189784828561184e565b509392505050565b600082601f8301126118b4576118b3611787565b5b81356118c484826020860161185d565b91505092915050565b6118d681611651565b81146118e157600080fd5b50565b6000813590506118f3816118cd565b92915050565b600080600080608085870312156119135761191261177d565b5b600085013567ffffffffffffffff81111561193157611930611782565b5b61193d8782880161189f565b945050602085013567ffffffffffffffff81111561195e5761195d611782565b5b61196a8782880161189f565b935050604061197b878288016118e4565b925050606061198c878288016118e4565b91505092959194509250565b6119a1816116a5565b81146119ac57600080fd5b50565b6000813590506119be81611998565b92915050565b6000602082840312156119da576119d961177d565b5b60006119e8848285016119af565b91505092915050565b60006119fc82611685565b9050919050565b611a0c816119f1565b82525050565b6000602082019050611a276000830184611a03565b92915050565b600060208284031215611a4357611a4261177d565b5b6000611a51848285016118e4565b91505092915050565b600081519050919050565b600082825260208201905092915050565b60005b83811015611a94578082015181840152602081019050611a79565b83811115611aa3576000848401525b50505050565b6000611ab482611a5a565b611abe8185611a65565b9350611ace818560208601611a76565b611ad781611791565b840191505092915050565b60006080820190508181036000830152611afc8187611aa9565b90508181036020830152611b108186611aa9565b9050611b1f604083018561165b565b611b2c606083018461165b565b95945050505050565b600081519050919050565b600082825260208201905092915050565b6000819050602082019050919050565b600082825260208201905092915050565b6000611b7d82611a5a565b611b878185611b61565b9350611b97818560208601611a76565b611ba081611791565b840191505092915050565b611bb481611651565b82525050565b60006080830160008301518482036000860152611bd78282611b72565b91505060208301518482036020860152611bf18282611b72565b9150506040830151611c066040860182611bab565b506060830151611c196060860182611bab565b508091505092915050565b6000611c308383611bba565b905092915050565b6000602082019050919050565b6000611c5082611b35565b611c5a8185611b40565b935083602082028501611c6c85611b51565b8060005b85811015611ca85784840389528151611c898582611c24565b9450611c9483611c38565b925060208a01995050600181019050611c70565b50829750879550505050505092915050565b60006020820190508181036000830152611cd48184611c45565b905092915050565b7f4f6e6c7920637573746f6d65722063616e2075736520746869732066756e637460008201527f696f6e2e00000000000000000000000000000000000000000000000000000000602082015250565b6000611d38602483611a65565b9150611d4382611cdc565b604082019050919050565b60006020820190508181036000830152611d6781611d2b565b9050919050565b7f43616e6e6f742077697468647261770000000000000000000000000000000000600082015250565b6000611da4600f83611a65565b9150611daf82611d6e565b602082019050919050565b60006020820190508181036000830152611dd381611d97565b9050919050565b7f4f6e6c79206465616c65722063616e2075736520746869732066756e6374696f60008201527f6e2e000000000000000000000000000000000000000000000000000000000000602082015250565b6000611e36602283611a65565b9150611e4182611dda565b604082019050919050565b60006020820190508181036000830152611e6581611e29565b9050919050565b7f4e6f742070616964210000000000000000000000000000000000000000000000600082015250565b6000611ea2600983611a65565b9150611ead82611e6c565b602082019050919050565b60006020820190508181036000830152611ed181611e95565b9050919050565b7f436865636b696e6720726566756e642100000000000000000000000000000000600082015250565b6000611f0e601083611a65565b9150611f1982611ed8565b602082019050919050565b60006020820190508181036000830152611f3d81611f01565b9050919050565b7f4e6f742063616c6c61626c652100000000000000000000000000000000000000600082015250565b6000611f7a600d83611a65565b9150611f8582611f44565b602082019050919050565b60006020820190508181036000830152611fa981611f6d565b9050919050565b7f4e6f742063616c6c61626c650000000000000000000000000000000000000000600082015250565b6000611fe6600c83611a65565b9150611ff182611fb0565b602082019050919050565b6000602082019050818103600083015261201581611fd9565b9050919050565b7f4f6e6c7920766563746f722063616e2064656c65676174652e00000000000000600082015250565b6000612052601983611a65565b915061205d8261201c565b602082019050919050565b6000602082019050818103600083015261208181612045565b9050919050565b7f4e487b7100000000000000000000000000000000000000000000000000000000600052602260045260246000fd5b600060028204905060018216806120cf57607f821691505b602082108114156120e3576120e2612088565b5b50919050565b7f506c6561736520696e7365727420736f6d652070726f64756374210000000000600082015250565b600061211f601b83611a65565b915061212a826120e9565b602082019050919050565b6000602082019050818103600083015261214e81612112565b9050919050565b7f416c726561647920706169642100000000000000000000000000000000000000600082015250565b600061218b600d83611a65565b915061219682612155565b602082019050919050565b600060208201905081810360008301526121ba8161217e565b9050919050565b7f4e487b7100000000000000000000000000000000000000000000000000000000600052601160045260246000fd5b60006121fb82611651565b915061220683611651565b9250827fffffffffffffffffffffffffffffffffffffffffffffffffffffffffffffffff0382111561223b5761223a6121c1565b5b828201905092915050565b600061225182611651565b915061225c83611651565b92508282101561226f5761226e6121c1565b5b828203905092915050565b7f4e487b7100000000000000000000000000000000000000000000000000000000600052603260045260246000fd5b60006122b482611651565b91506122bf83611651565b9250817fffffffffffffffffffffffffffffffffffffffffffffffffffffffffffffffff04831182151516156122f8576122f76121c1565b5b828202905092915050565b600061230e82611651565b91507fffffffffffffffffffffffffffffffffffffffffffffffffffffffffffffffff821415612341576123406121c1565b5b60018201905091905056fea264697066735822122029652214f78e43b0fc47ecf8a5e91e4f9c5e5982c1281323295ccf50da50984e64736f6c63430008090033",
  "linkReferences": {},
  "deployedLinkReferences": {}
}